{
  "_format": "hh-sol-artifact-1",
  "contractName": "GigEscrow",
  "sourceName": "contracts/GigEscrow.sol",
  "abi": [
    {
      "inputs": [],
      "stateMutability": "nonpayable",
      "type": "constructor"
    },
    {
      "inputs": [],
      "name": "ReentrancyGuardReentrantCall",
      "type": "error"
    },
    {
      "inputs": [
        {
          "internalType": "address",
          "name": "token",
          "type": "address"
        }
      ],
      "name": "SafeERC20FailedOperation",
      "type": "error"
    },
    {
      "anonymous": false,
      "inputs": [
        {
          "indexed": true,
          "internalType": "uint256",
          "name": "gigId",
          "type": "uint256"
        },
        {
          "indexed": true,
          "internalType": "address",
          "name": "by",
          "type": "address"
        },
        {
          "indexed": false,
          "internalType": "string",
          "name": "reason",
          "type": "string"
        }
      ],
      "name": "DisputeRaised",
      "type": "event"
    },
    {
      "anonymous": false,
      "inputs": [
        {
          "indexed": true,
          "internalType": "uint256",
          "name": "gigId",
          "type": "uint256"
        },
        {
          "indexed": false,
          "internalType": "bool",
          "name": "freelancerWins",
          "type": "bool"
        },
        {
          "indexed": false,
          "internalType": "uint256",
          "name": "amount",
          "type": "uint256"
        }
      ],
      "name": "DisputeResolved",
      "type": "event"
    },
    {
      "anonymous": false,
      "inputs": [
        {
          "indexed": true,
          "internalType": "address",
          "name": "freelancer",
          "type": "address"
        },
        {
          "indexed": false,
          "internalType": "uint256",
          "name": "completedGigs",
          "type": "uint256"
        },
        {
          "indexed": false,
          "internalType": "uint256",
          "name": "totalEarned",
          "type": "uint256"
        }
      ],
      "name": "FreelancerReputationUpdated",
      "type": "event"
    },
    {
      "anonymous": false,
      "inputs": [
        {
          "indexed": true,
          "internalType": "uint256",
          "name": "gigId",
          "type": "uint256"
        },
        {
          "indexed": true,
          "internalType": "address",
          "name": "freelancer",
          "type": "address"
        }
      ],
      "name": "FreelancerSelected",
      "type": "event"
    },
    {
      "anonymous": false,
      "inputs": [
        {
          "indexed": true,
          "internalType": "uint256",
          "name": "gigId",
          "type": "uint256"
        },
        {
          "indexed": false,
          "internalType": "uint256",
          "name": "refundAmount",
          "type": "uint256"
        }
      ],
      "name": "GigCancelledByClient",
      "type": "event"
    },
    {
      "anonymous": false,
      "inputs": [
        {
          "indexed": true,
          "internalType": "uint256",
          "name": "gigId",
          "type": "uint256"
        },
        {
          "indexed": false,
          "internalType": "uint256",
          "name": "refundAmount",
          "type": "uint256"
        }
      ],
      "name": "GigCancelledByFreelancer",
      "type": "event"
    },
    {
      "anonymous": false,
      "inputs": [
        {
          "indexed": true,
          "internalType": "uint256",
          "name": "gigId",
          "type": "uint256"
        },
        {
          "indexed": true,
          "internalType": "address",
          "name": "freelancer",
          "type": "address"
        },
        {
          "indexed": false,
          "internalType": "uint256",
          "name": "startTime",
          "type": "uint256"
        },
        {
          "indexed": false,
          "internalType": "uint256",
          "name": "completionTime",
          "type": "uint256"
        },
        {
          "indexed": false,
          "internalType": "uint256",
          "name": "duration",
          "type": "uint256"
        }
      ],
      "name": "GigCompletedDetailed",
      "type": "event"
    },
    {
      "anonymous": false,
      "inputs": [
        {
          "indexed": true,
          "internalType": "uint256",
          "name": "gigId",
          "type": "uint256"
        },
        {
          "indexed": true,
          "internalType": "address",
          "name": "client",
          "type": "address"
        },
        {
          "indexed": false,
          "internalType": "uint256",
          "name": "totalBudget",
          "type": "uint256"
        },
        {
          "indexed": false,
          "internalType": "string",
          "name": "description",
          "type": "string"
        },
        {
          "indexed": false,
          "internalType": "uint256",
          "name": "milestoneCount",
          "type": "uint256"
        }
      ],
      "name": "GigPosted",
      "type": "event"
    },
    {
      "anonymous": false,
      "inputs": [
        {
          "indexed": true,
          "internalType": "uint256",
          "name": "gigId",
          "type": "uint256"
        },
        {
          "indexed": true,
          "internalType": "address",
          "name": "freelancer",
          "type": "address"
        },
        {
          "indexed": false,
          "internalType": "uint256",
          "name": "startTime",
          "type": "uint256"
        }
      ],
      "name": "GigStarted",
      "type": "event"
    },
    {
      "anonymous": false,
      "inputs": [
        {
          "indexed": true,
          "internalType": "uint256",
          "name": "gigId",
          "type": "uint256"
        },
        {
          "indexed": true,
          "internalType": "uint256",
          "name": "milestoneIndex",
          "type": "uint256"
        },
        {
          "indexed": true,
          "internalType": "address",
          "name": "freelancer",
          "type": "address"
        },
        {
          "indexed": false,
          "internalType": "uint256",
          "name": "amount",
          "type": "uint256"
        }
      ],
      "name": "MilestonePaymentReleased",
      "type": "event"
    },
    {
      "stateMutability": "payable",
      "type": "fallback"
    },
    {
      "inputs": [],
      "name": "arbitrator",
      "outputs": [
        {
          "internalType": "address",
          "name": "",
          "type": "address"
        }
      ],
      "stateMutability": "view",
      "type": "function"
    },
    {
      "inputs": [
        {
          "internalType": "uint256",
          "name": "",
          "type": "uint256"
        }
      ],
      "name": "badgeUrisByCount",
      "outputs": [
        {
          "internalType": "string",
          "name": "",
          "type": "string"
        }
      ],
      "stateMutability": "view",
      "type": "function"
    },
    {
      "inputs": [
        {
          "internalType": "uint256",
          "name": "_gigId",
          "type": "uint256"
        }
      ],
      "name": "bidGig",
      "outputs": [],
      "stateMutability": "nonpayable",
      "type": "function"
    },
    {
      "inputs": [
        {
          "internalType": "uint256",
          "name": "",
          "type": "uint256"
        },
        {
          "internalType": "uint256",
          "name": "",
          "type": "uint256"
        }
      ],
      "name": "bidders",
      "outputs": [
        {
          "internalType": "address",
          "name": "",
          "type": "address"
        }
      ],
      "stateMutability": "view",
      "type": "function"
    },
    {
      "inputs": [
        {
          "internalType": "uint256",
          "name": "_gigId",
          "type": "uint256"
        }
      ],
      "name": "cancelGigByClient",
      "outputs": [],
      "stateMutability": "nonpayable",
      "type": "function"
    },
    {
      "inputs": [
        {
          "internalType": "uint256",
          "name": "_gigId",
          "type": "uint256"
        }
      ],
      "name": "cancelGigByFreelancer",
      "outputs": [],
      "stateMutability": "nonpayable",
      "type": "function"
    },
    {
      "inputs": [
        {
          "internalType": "uint256",
          "name": "",
          "type": "uint256"
        }
      ],
      "name": "disputes",
      "outputs": [
        {
          "internalType": "address",
          "name": "raisedBy",
          "type": "address"
        },
        {
          "internalType": "string",
          "name": "reason",
          "type": "string"
        },
        {
          "internalType": "bool",
          "name": "exists",
          "type": "bool"
        },
        {
          "internalType": "bool",
          "name": "resolved",
          "type": "bool"
        },
        {
          "internalType": "bool",
          "name": "freelancerWins",
          "type": "bool"
        }
      ],
      "stateMutability": "view",
      "type": "function"
    },
    {
      "inputs": [
        {
          "internalType": "address",
          "name": "",
          "type": "address"
        }
      ],
      "name": "freelancerCompletedGigs",
      "outputs": [
        {
          "internalType": "uint256",
          "name": "",
          "type": "uint256"
        }
      ],
      "stateMutability": "view",
      "type": "function"
    },
    {
      "inputs": [
        {
          "internalType": "address",
          "name": "",
          "type": "address"
        }
      ],
      "name": "freelancerTotalEarned",
      "outputs": [
        {
          "internalType": "uint256",
          "name": "",
          "type": "uint256"
        }
      ],
      "stateMutability": "view",
      "type": "function"
    },
    {
      "inputs": [
        {
          "internalType": "address",
          "name": "_freelancer",
          "type": "address"
        }
      ],
      "name": "getFreelancerCompletedGigs",
      "outputs": [
        {
          "internalType": "uint256",
          "name": "",
          "type": "uint256"
        }
      ],
      "stateMutability": "view",
      "type": "function"
    },
    {
      "inputs": [
        {
          "internalType": "address",
          "name": "_freelancer",
          "type": "address"
        }
      ],
      "name": "getFreelancerTotalEarned",
      "outputs": [
        {
          "internalType": "uint256",
          "name": "",
          "type": "uint256"
        }
      ],
      "stateMutability": "view",
      "type": "function"
    },
    {
      "inputs": [
        {
          "internalType": "uint256",
          "name": "_gigId",
          "type": "uint256"
        }
      ],
      "name": "getGig",
      "outputs": [
        {
          "components": [
            {
              "internalType": "uint256",
              "name": "gigId",
              "type": "uint256"
            },
            {
              "internalType": "address payable",
              "name": "client",
              "type": "address"
            },
            {
              "internalType": "address payable",
              "name": "freelancer",
              "type": "address"
            },
            {
              "internalType": "uint256",
              "name": "totalBudget",
              "type": "uint256"
            },
            {
              "internalType": "string",
              "name": "description",
              "type": "string"
            },
            {
              "internalType": "enum GigEscrow.State",
              "name": "state",
              "type": "uint8"
            },
            {
              "internalType": "bool",
              "name": "exists",
              "type": "bool"
            },
            {
              "components": [
                {
                  "internalType": "string",
                  "name": "description",
                  "type": "string"
                },
                {
                  "internalType": "uint256",
                  "name": "value",
                  "type": "uint256"
                },
                {
                  "internalType": "bool",
                  "name": "completed",
                  "type": "bool"
                }
              ],
              "internalType": "struct GigEscrow.Milestone[]",
              "name": "milestones",
              "type": "tuple[]"
            },
            {
              "internalType": "uint256",
              "name": "completedMilestoneCount",
              "type": "uint256"
            },
            {
              "internalType": "address",
              "name": "token",
              "type": "address"
            }
          ],
          "internalType": "struct GigEscrow.Gig",
          "name": "",
          "type": "tuple"
        }
      ],
      "stateMutability": "view",
      "type": "function"
    },
    {
      "inputs": [
        {
          "internalType": "uint256",
          "name": "_gigId",
          "type": "uint256"
        },
        {
          "internalType": "uint256",
          "name": "_milestoneIndex",
          "type": "uint256"
        }
      ],
      "name": "getMilestone",
      "outputs": [
        {
          "components": [
            {
              "internalType": "string",
              "name": "description",
              "type": "string"
            },
            {
              "internalType": "uint256",
              "name": "value",
              "type": "uint256"
            },
            {
              "internalType": "bool",
              "name": "completed",
              "type": "bool"
            }
          ],
          "internalType": "struct GigEscrow.Milestone",
          "name": "",
          "type": "tuple"
        }
      ],
      "stateMutability": "view",
      "type": "function"
    },
    {
      "inputs": [
        {
          "internalType": "uint256",
          "name": "",
          "type": "uint256"
        }
      ],
      "name": "gigCompletionTime",
      "outputs": [
        {
          "internalType": "uint256",
          "name": "",
          "type": "uint256"
        }
      ],
      "stateMutability": "view",
      "type": "function"
    },
    {
      "inputs": [
        {
          "internalType": "uint256",
          "name": "",
          "type": "uint256"
        }
      ],
      "name": "gigStartTime",
      "outputs": [
        {
          "internalType": "uint256",
          "name": "",
          "type": "uint256"
        }
      ],
      "stateMutability": "view",
      "type": "function"
    },
    {
      "inputs": [
        {
          "internalType": "uint256",
          "name": "",
          "type": "uint256"
        }
      ],
      "name": "gigs",
      "outputs": [
        {
          "internalType": "uint256",
          "name": "gigId",
          "type": "uint256"
        },
        {
          "internalType": "address payable",
          "name": "client",
          "type": "address"
        },
        {
          "internalType": "address payable",
          "name": "freelancer",
          "type": "address"
        },
        {
          "internalType": "uint256",
          "name": "totalBudget",
          "type": "uint256"
        },
        {
          "internalType": "string",
          "name": "description",
          "type": "string"
        },
        {
          "internalType": "enum GigEscrow.State",
          "name": "state",
          "type": "uint8"
        },
        {
          "internalType": "bool",
          "name": "exists",
          "type": "bool"
        },
        {
          "internalType": "uint256",
          "name": "completedMilestoneCount",
          "type": "uint256"
        },
        {
          "internalType": "address",
          "name": "token",
          "type": "address"
        }
      ],
      "stateMutability": "view",
      "type": "function"
    },
    {
      "inputs": [
        {
          "internalType": "uint256",
          "name": "",
          "type": "uint256"
        },
        {
          "internalType": "address",
          "name": "",
          "type": "address"
        }
      ],
      "name": "hasBid",
      "outputs": [
        {
          "internalType": "bool",
          "name": "",
          "type": "bool"
        }
      ],
      "stateMutability": "view",
      "type": "function"
    },
    {
      "inputs": [],
      "name": "nextGigId",
      "outputs": [
        {
          "internalType": "uint256",
          "name": "",
          "type": "uint256"
        }
      ],
      "stateMutability": "view",
      "type": "function"
    },
    {
      "inputs": [
        {
          "internalType": "address",
          "name": "_token",
          "type": "address"
        },
        {
          "internalType": "string",
          "name": "_description",
          "type": "string"
        },
        {
          "internalType": "string[]",
          "name": "_milestoneDescriptions",
          "type": "string[]"
        },
        {
          "internalType": "uint256[]",
          "name": "_milestoneValues",
          "type": "uint256[]"
        }
      ],
      "name": "postGig",
      "outputs": [],
      "stateMutability": "payable",
      "type": "function"
    },
    {
      "inputs": [
        {
          "internalType": "uint256",
          "name": "_gigId",
          "type": "uint256"
        },
        {
          "internalType": "string",
          "name": "_reason",
          "type": "string"
        }
      ],
      "name": "raiseDispute",
      "outputs": [],
      "stateMutability": "nonpayable",
      "type": "function"
    },
    {
      "inputs": [
        {
          "internalType": "uint256",
          "name": "_gigId",
          "type": "uint256"
        },
        {
          "internalType": "uint256",
          "name": "_milestoneIndex",
          "type": "uint256"
        }
      ],
      "name": "releaseMilestonePayment",
      "outputs": [],
      "stateMutability": "nonpayable",
      "type": "function"
    },
    {
      "inputs": [
        {
          "internalType": "uint256",
          "name": "_gigId",
          "type": "uint256"
        },
        {
          "internalType": "bool",
          "name": "_freelancerWins",
          "type": "bool"
        }
      ],
      "name": "resolveDispute",
      "outputs": [],
      "stateMutability": "nonpayable",
      "type": "function"
    },
    {
      "inputs": [
        {
          "internalType": "uint256",
          "name": "_gigId",
          "type": "uint256"
        },
        {
          "internalType": "address payable",
          "name": "_freelancer",
          "type": "address"
        }
      ],
      "name": "selectFreelancer",
      "outputs": [],
      "stateMutability": "nonpayable",
      "type": "function"
    },
    {
      "inputs": [
        {
          "internalType": "address",
          "name": "_stakeToken",
          "type": "address"
        },
        {
          "internalType": "uint256",
          "name": "_stakeAmount",
          "type": "uint256"
        }
      ],
      "name": "setStakeParams",
      "outputs": [],
      "stateMutability": "nonpayable",
      "type": "function"
    },
    {
      "inputs": [],
      "name": "stakeAmount",
      "outputs": [
        {
          "internalType": "uint256",
          "name": "",
          "type": "uint256"
        }
      ],
      "stateMutability": "view",
      "type": "function"
    },
    {
      "inputs": [],
      "name": "stakeToken",
      "outputs": [
        {
          "internalType": "address",
          "name": "",
          "type": "address"
        }
      ],
      "stateMutability": "view",
      "type": "function"
    },
    {
      "stateMutability": "payable",
      "type": "receive"
    }
  ],
  "bytecode": "0x6080604052348015600f57600080fd5b50600160008190555033600160006101000a81548173ffffffffffffffffffffffffffffffffffffffff021916908373ffffffffffffffffffffffffffffffffffffffff160217905550616178806100686000396000f3fe6080604052600436106101855760003560e01c806367a6971a116100d15780639d79ae9e1161008a578063d1c1120511610064578063d1c11205146105f1578063d57a2c5b1461062e578063e23ae1f814610657578063fd45237c1461068057610186565b80639d79ae9e1461053a578063a8d75afa14610577578063b3479ed4146105b457610186565b806367a6971a146104275780636a910049146104645780636cc6cde114610480578063808d0b88146104ab5780638c936e65146104d45780638ed9895c146104fd57610186565b806351ed6a301161013e5780635aef573c116101185780635aef573c146103515780635e3fbdc81461037a57806360c7dc47146103bf5780636698c7de146103ea57610186565b806351ed6a30146102ba57806355ab6ba3146102e5578063564a565d1461031057610186565b806312b88c4e146101885780631da0a237146101c55780632981571e146101ee57806334b25ee21461022b578063380deabc14610254578063449e88121461027d57610186565b5b005b34801561019457600080fd5b506101af60048036038101906101aa91906142b0565b6106bd565b6040516101bc91906142f6565b60405180910390f35b3480156101d157600080fd5b506101ec60048036038101906101e7919061433d565b610706565b005b3480156101fa57600080fd5b50610215600480360381019061021091906142b0565b610bde565b60405161022291906142f6565b60405180910390f35b34801561023757600080fd5b50610252600480360381019061024d91906143a2565b610c27565b005b34801561026057600080fd5b5061027b60048036038101906102769190614420565b61161c565b005b34801561028957600080fd5b506102a4600480360381019061029f9190614460565b611a75565b6040516102b191906144af565b60405180910390f35b3480156102c657600080fd5b506102cf611aa4565b6040516102dc91906144d9565b60405180910390f35b3480156102f157600080fd5b506102fa611aca565b60405161030791906142f6565b60405180910390f35b34801561031c57600080fd5b506103376004803603810190610332919061433d565b611ad0565b604051610348959493929190614584565b60405180910390f35b34801561035d57600080fd5b5061037860048036038101906103739190614713565b611bd5565b005b34801561038657600080fd5b506103a1600480360381019061039c919061433d565b611fd7565b6040516103b6999897969594939291906147f5565b60405180910390f35b3480156103cb57600080fd5b506103d4612127565b6040516103e191906142f6565b60405180910390f35b3480156103f657600080fd5b50610411600480360381019061040c91906142b0565b61212d565b60405161041e91906142f6565b60405180910390f35b34801561043357600080fd5b5061044e6004803603810190610449919061433d565b612145565b60405161045b91906142f6565b60405180910390f35b61047e60048036038101906104799190614a32565b61215d565b005b34801561048c57600080fd5b50610495612637565b6040516104a291906144d9565b60405180910390f35b3480156104b757600080fd5b506104d260048036038101906104cd919061433d565b61265d565b005b3480156104e057600080fd5b506104fb60048036038101906104f69190614aed565b612bc9565b005b34801561050957600080fd5b50610524600480360381019061051f9190614aed565b6134a0565b6040516105319190614be5565b60405180910390f35b34801561054657600080fd5b50610561600480360381019061055c919061433d565b613666565b60405161056e91906142f6565b60405180910390f35b34801561058357600080fd5b5061059e6004803603810190610599919061433d565b61367e565b6040516105ab9190614c07565b60405180910390f35b3480156105c057600080fd5b506105db60048036038101906105d6919061433d565b61371e565b6040516105e89190614e49565b60405180910390f35b3480156105fd57600080fd5b5061061860048036038101906106139190614aed565b613acd565b60405161062591906144d9565b60405180910390f35b34801561063a57600080fd5b506106556004803603810190610650919061433d565b613b1b565b005b34801561066357600080fd5b5061067e60048036038101906106799190614e6b565b613e8b565b005b34801561068c57600080fd5b506106a760048036038101906106a291906142b0565b613f67565b6040516106b491906142f6565b60405180910390f35b6000600760008373ffffffffffffffffffffffffffffffffffffffff1673ffffffffffffffffffffffffffffffffffffffff168152602001908152602001600020549050919050565b806004600082815260200190815260200160002060050160019054906101000a900460ff1661076a576040517f08c379a000000000000000000000000000000000000000000000000000000000815260040161076190614ef7565b60405180910390fd5b6004600082815260200190815260200160002060010160009054906101000a900473ffffffffffffffffffffffffffffffffffffffff1673ffffffffffffffffffffffffffffffffffffffff163373ffffffffffffffffffffffffffffffffffffffff161461080e576040517f08c379a000000000000000000000000000000000000000000000000000000000815260040161080590614f89565b60405180910390fd5b610816613f7f565b6000600460008481526020019081526020016000209050600060058111156108415761084061477e565b5b8160050160009054906101000a900460ff1660058111156108655761086461477e565b5b14806108a65750600160058111156108805761087f61477e565b5b8160050160009054906101000a900460ff1660058111156108a4576108a361477e565b5b145b6108e5576040517f08c379a00000000000000000000000000000000000000000000000000000000081526004016108dc9061501b565b60405180910390fd5b60008060058111156108fa576108f961477e565b5b8260050160009054906101000a900460ff16600581111561091e5761091d61477e565b5b0361092f57816003015490506109bf565b60005b82600601805490508110156109bd578260060181815481106109575761095661503b565b5b906000526020600020906003020160020160009054906101000a900460ff166109b0578260060181815481106109905761098f61503b565b5b906000526020600020906003020160010154826109ad9190615099565b91505b8080600101915050610932565b505b60048260050160006101000a81548160ff021916908360058111156109e7576109e661477e565b5b02179055506000811115610b9857600073ffffffffffffffffffffffffffffffffffffffff168260080160009054906101000a900473ffffffffffffffffffffffffffffffffffffffff1673ffffffffffffffffffffffffffffffffffffffff1603610b235760008260010160009054906101000a900473ffffffffffffffffffffffffffffffffffffffff1673ffffffffffffffffffffffffffffffffffffffff1682604051610a97906150fe565b60006040518083038185875af1925050503d8060008114610ad4576040519150601f19603f3d011682016040523d82523d6000602084013e610ad9565b606091505b5050905080610b1d576040517f08c379a0000000000000000000000000000000000000000000000000000000008152600401610b1490615185565b60405180910390fd5b50610b97565b610b968260010160009054906101000a900473ffffffffffffffffffffffffffffffffffffffff16828460080160009054906101000a900473ffffffffffffffffffffffffffffffffffffffff1673ffffffffffffffffffffffffffffffffffffffff16613fc59092919063ffffffff16565b5b5b837f2e9dbb4e416a4ea638263858ffb46f4287b68d4fddace1377ddf5e9efb64b54b82604051610bc891906142f6565b60405180910390a25050610bda614044565b5050565b6000600660008373ffffffffffffffffffffffffffffffffffffffff1673ffffffffffffffffffffffffffffffffffffffff168152602001908152602001600020549050919050565b600160009054906101000a900473ffffffffffffffffffffffffffffffffffffffff1673ffffffffffffffffffffffffffffffffffffffff163373ffffffffffffffffffffffffffffffffffffffff1614610cb7576040517f08c379a0000000000000000000000000000000000000000000000000000000008152600401610cae90615217565b60405180910390fd5b8160026004600083815260200190815260200160002060050160019054906101000a900460ff16610d1d576040517f08c379a0000000000000000000000000000000000000000000000000000000008152600401610d1490614ef7565b60405180910390fd5b806005811115610d3057610d2f61477e565b5b6004600084815260200190815260200160002060050160009054906101000a900460ff166005811115610d6657610d6561477e565b5b14610da6576040517f08c379a0000000000000000000000000000000000000000000000000000000008152600401610d9d906152a9565b60405180910390fd5b610dae613f7f565b600060046000868152602001908152602001600020905060006003600087815260200190815260200160002090508060020160009054906101000a900460ff168015610e0957508060020160019054906101000a900460ff16155b610e48576040517f08c379a0000000000000000000000000000000000000000000000000000000008152600401610e3f90615315565b60405180910390fd5b6000805b8360060180549050811015610f1757836006018181548110610e7157610e7061503b565b5b906000526020600020906003020160020160009054906101000a900460ff16610f0a57836006018181548110610eaa57610ea961503b565b5b90600052602060002090600302016001015482610ec79190615099565b91506001846006018281548110610ee157610ee061503b565b5b906000526020600020906003020160020160006101000a81548160ff0219169083151502179055505b8080600101915050610e4c565b5060018260020160016101000a81548160ff021916908315150217905550858260020160026101000a81548160ff02191690831515021790555085156112ab576000600c6000898152602001908152602001600020549050600042905080600d60008b8152602001908152602001600020819055508460020160009054906101000a900473ffffffffffffffffffffffffffffffffffffffff1673ffffffffffffffffffffffffffffffffffffffff16897f43665d08f32af3556ecdcec0e26671fc253ba64b93c43eb2cc1cdb9b0a1e4dab84848686610ff79190615335565b60405161100693929190615369565b60405180910390a360038560050160006101000a81548160ff021916908360058111156110365761103561477e565b5b02179055508460060180549050856007018190555060008560020160009054906101000a900473ffffffffffffffffffffffffffffffffffffffff169050600660008273ffffffffffffffffffffffffffffffffffffffff1673ffffffffffffffffffffffffffffffffffffffff16815260200190815260200160002060008154809291906110c4906153a0565b919050555083600760008373ffffffffffffffffffffffffffffffffffffffff1673ffffffffffffffffffffffffffffffffffffffff16815260200190815260200160002060008282546111189190615099565b925050819055508073ffffffffffffffffffffffffffffffffffffffff167f37f167154aced6254056a546c0ac25475a4a2efbb93890657dde7ced2513fe61600660008473ffffffffffffffffffffffffffffffffffffffff1673ffffffffffffffffffffffffffffffffffffffff16815260200190815260200160002054600760008573ffffffffffffffffffffffffffffffffffffffff1673ffffffffffffffffffffffffffffffffffffffff168152602001908152602001600020546040516111e59291906153e8565b60405180910390a2600073ffffffffffffffffffffffffffffffffffffffff16600860009054906101000a900473ffffffffffffffffffffffffffffffffffffffff1673ffffffffffffffffffffffffffffffffffffffff161415801561124e57506000600954115b156112a3576112a281600954600860009054906101000a900473ffffffffffffffffffffffffffffffffffffffff1673ffffffffffffffffffffffffffffffffffffffff16613fc59092919063ffffffff16565b5b5050506113b3565b60048360050160006101000a81548160ff021916908360058111156112d3576112d261477e565b5b0217905550600073ffffffffffffffffffffffffffffffffffffffff16600860009054906101000a900473ffffffffffffffffffffffffffffffffffffffff1673ffffffffffffffffffffffffffffffffffffffff161415801561133957506000600954115b156113b2576113b18360010160009054906101000a900473ffffffffffffffffffffffffffffffffffffffff16600954600860009054906101000a900473ffffffffffffffffffffffffffffffffffffffff1673ffffffffffffffffffffffffffffffffffffffff16613fc59092919063ffffffff16565b5b5b60008111156115d157600073ffffffffffffffffffffffffffffffffffffffff168360080160009054906101000a900473ffffffffffffffffffffffffffffffffffffffff1673ffffffffffffffffffffffffffffffffffffffff160361152057600086611445578360010160009054906101000a900473ffffffffffffffffffffffffffffffffffffffff1661146b565b8360020160009054906101000a900473ffffffffffffffffffffffffffffffffffffffff165b905060008173ffffffffffffffffffffffffffffffffffffffff1683604051611493906150fe565b60006040518083038185875af1925050503d80600081146114d0576040519150601f19603f3d011682016040523d82523d6000602084013e6114d5565b606091505b5050905080611519576040517f08c379a000000000000000000000000000000000000000000000000000000000815260040161151090615483565b60405180910390fd5b50506115d0565b60008360080160009054906101000a900473ffffffffffffffffffffffffffffffffffffffff16905060008761157a578460010160009054906101000a900473ffffffffffffffffffffffffffffffffffffffff166115a0565b8460020160009054906101000a900473ffffffffffffffffffffffffffffffffffffffff165b90506115cd81848473ffffffffffffffffffffffffffffffffffffffff16613fc59092919063ffffffff16565b50505b5b867f5add0b1fc2a3dfd95be33d1d5feb6709087e50213b7a73c3c3b2c387001221e787836040516116039291906154a3565b60405180910390a2505050611616614044565b50505050565b816004600082815260200190815260200160002060050160019054906101000a900460ff16611680576040517f08c379a000000000000000000000000000000000000000000000000000000000815260040161167790614ef7565b60405180910390fd5b6004600082815260200190815260200160002060010160009054906101000a900473ffffffffffffffffffffffffffffffffffffffff1673ffffffffffffffffffffffffffffffffffffffff163373ffffffffffffffffffffffffffffffffffffffff1614611724576040517f08c379a000000000000000000000000000000000000000000000000000000000815260040161171b90614f89565b60405180910390fd5b8260006004600083815260200190815260200160002060050160019054906101000a900460ff1661178a576040517f08c379a000000000000000000000000000000000000000000000000000000000815260040161178190614ef7565b60405180910390fd5b80600581111561179d5761179c61477e565b5b6004600084815260200190815260200160002060050160009054906101000a900460ff1660058111156117d3576117d261477e565b5b14611813576040517f08c379a000000000000000000000000000000000000000000000000000000000815260040161180a906152a9565b60405180910390fd5b61181b613f7f565b600073ffffffffffffffffffffffffffffffffffffffff168473ffffffffffffffffffffffffffffffffffffffff160361188a576040517f08c379a00000000000000000000000000000000000000000000000000000000081526004016118819061553e565b60405180910390fd5b600a600086815260200190815260200160002060008573ffffffffffffffffffffffffffffffffffffffff1673ffffffffffffffffffffffffffffffffffffffff16815260200190815260200160002060009054906101000a900460ff16611927576040517f08c379a000000000000000000000000000000000000000000000000000000000815260040161191e906155d0565b60405180910390fd5b836004600087815260200190815260200160002060020160006101000a81548173ffffffffffffffffffffffffffffffffffffffff021916908373ffffffffffffffffffffffffffffffffffffffff16021790555060016004600087815260200190815260200160002060050160006101000a81548160ff021916908360058111156119b6576119b561477e565b5b021790555042600c6000878152602001908152602001600020819055508373ffffffffffffffffffffffffffffffffffffffff16857fa7661d7b71508ed844493fb44d8189d5e683fb7efe63147d59db997a1165115542604051611a1a91906142f6565b60405180910390a38373ffffffffffffffffffffffffffffffffffffffff16857f038b6dd13ab376cd96a6924f79dde494c7fbb5ea9f8c950b668d934645995cfd60405160405180910390a3611a6e614044565b5050505050565b600a6020528160005260406000206020528060005260406000206000915091509054906101000a900460ff1681565b600860009054906101000a900473ffffffffffffffffffffffffffffffffffffffff1681565b60055481565b60036020528060005260406000206000915090508060000160009054906101000a900473ffffffffffffffffffffffffffffffffffffffff1690806001018054611b199061561f565b80601f0160208091040260200160405190810160405280929190818152602001828054611b459061561f565b8015611b925780601f10611b6757610100808354040283529160200191611b92565b820191906000526020600020905b815481529060010190602001808311611b7557829003601f168201915b5050505050908060020160009054906101000a900460ff16908060020160019054906101000a900460ff16908060020160029054906101000a900460ff16905085565b8160016004600083815260200190815260200160002060050160019054906101000a900460ff16611c3b576040517f08c379a0000000000000000000000000000000000000000000000000000000008152600401611c3290614ef7565b60405180910390fd5b806005811115611c4e57611c4d61477e565b5b6004600084815260200190815260200160002060050160009054906101000a900460ff166005811115611c8457611c8361477e565b5b14611cc4576040517f08c379a0000000000000000000000000000000000000000000000000000000008152600401611cbb906152a9565b60405180910390fd5b611ccc613f7f565b60006004600086815260200190815260200160002090508060010160009054906101000a900473ffffffffffffffffffffffffffffffffffffffff1673ffffffffffffffffffffffffffffffffffffffff163373ffffffffffffffffffffffffffffffffffffffff161480611d9057508060020160009054906101000a900473ffffffffffffffffffffffffffffffffffffffff1673ffffffffffffffffffffffffffffffffffffffff163373ffffffffffffffffffffffffffffffffffffffff16145b611dcf576040517f08c379a0000000000000000000000000000000000000000000000000000000008152600401611dc6906156c2565b60405180910390fd5b6003600086815260200190815260200160002060020160009054906101000a900460ff1615611e33576040517f08c379a0000000000000000000000000000000000000000000000000000000008152600401611e2a90615754565b60405180910390fd5b6040518060a001604052803373ffffffffffffffffffffffffffffffffffffffff168152602001858152602001600115158152602001600015158152602001600015158152506003600087815260200190815260200160002060008201518160000160006101000a81548173ffffffffffffffffffffffffffffffffffffffff021916908373ffffffffffffffffffffffffffffffffffffffff1602179055506020820151816001019081611ee89190615920565b5060408201518160020160006101000a81548160ff02191690831515021790555060608201518160020160016101000a81548160ff02191690831515021790555060808201518160020160026101000a81548160ff02191690831515021790555090505060028160050160006101000a81548160ff02191690836005811115611f7457611f7361477e565b5b02179055503373ffffffffffffffffffffffffffffffffffffffff16857f1b84372106d77c6daea0dda35bbc0229d10a83f58ec89909288492519368234186604051611fc09190614c07565b60405180910390a350611fd1614044565b50505050565b60046020528060005260406000206000915090508060000154908060010160009054906101000a900473ffffffffffffffffffffffffffffffffffffffff16908060020160009054906101000a900473ffffffffffffffffffffffffffffffffffffffff16908060030154908060040180546120529061561f565b80601f016020809104026020016040519081016040528092919081815260200182805461207e9061561f565b80156120cb5780601f106120a0576101008083540402835291602001916120cb565b820191906000526020600020905b8154815290600101906020018083116120ae57829003601f168201915b5050505050908060050160009054906101000a900460ff16908060050160019054906101000a900460ff16908060070154908060080160009054906101000a900473ffffffffffffffffffffffffffffffffffffffff16905089565b60095481565b60076020528060005260406000206000915090505481565b600d6020528060005260406000206000915090505481565b612165613f7f565b60008251116121a9576040517f08c379a00000000000000000000000000000000000000000000000000000000081526004016121a090615a64565b60405180910390fd5b80518251146121ed576040517f08c379a00000000000000000000000000000000000000000000000000000000081526004016121e490615af6565b60405180910390fd5b6000805b825181101561228c57600083828151811061220f5761220e61503b565b5b602002602001015111612257576040517f08c379a000000000000000000000000000000000000000000000000000000000815260040161224e90615b88565b60405180910390fd5b82818151811061226a5761226961503b565b5b60200260200101518261227d9190615099565b915080806001019150506121f1565b50600073ffffffffffffffffffffffffffffffffffffffff168573ffffffffffffffffffffffffffffffffffffffff160361230857803414612303576040517f08c379a00000000000000000000000000000000000000000000000000000000081526004016122fa90615c1a565b60405180910390fd5b612379565b6000341461234b576040517f08c379a000000000000000000000000000000000000000000000000000000000815260040161234290615cac565b60405180910390fd5b6123783330838873ffffffffffffffffffffffffffffffffffffffff1661404e909392919063ffffffff16565b5b600060055490506000600460008381526020019081526020016000209050868160080160006101000a81548173ffffffffffffffffffffffffffffffffffffffff021916908373ffffffffffffffffffffffffffffffffffffffff160217905550818160000181905550338160010160006101000a81548173ffffffffffffffffffffffffffffffffffffffff021916908373ffffffffffffffffffffffffffffffffffffffff16021790555060008160020160006101000a81548173ffffffffffffffffffffffffffffffffffffffff021916908373ffffffffffffffffffffffffffffffffffffffff160217905550828160030181905550858160040190816124849190615920565b5060008160050160006101000a81548160ff021916908360058111156124ad576124ac61477e565b5b021790555060018160050160016101000a81548160ff0219169083151502179055506000816007018190555060005b85518110156125b3578160060160405180606001604052808884815181106125075761250661503b565b5b602002602001015181526020018784815181106125275761252661503b565b5b6020026020010151815260200160001515815250908060018154018082558091505060019003906000526020600020906003020160009091909190915060008201518160000190816125799190615920565b506020820151816001015560408201518160020160006101000a81548160ff021916908315150217905550505080806001019150506124dc565b50600560008154809291906125c7906153a0565b91905055503373ffffffffffffffffffffffffffffffffffffffff16827fc9ecb6d1608d9b3507bb9d9c5dd51390c001bede92796fb8dd62dc7b624f19358589856006018054905060405161261e93929190615ccc565b60405180910390a3505050612631614044565b50505050565b600160009054906101000a900473ffffffffffffffffffffffffffffffffffffffff1681565b806004600082815260200190815260200160002060050160019054906101000a900460ff166126c1576040517f08c379a00000000000000000000000000000000000000000000000000000000081526004016126b890614ef7565b60405180910390fd5b600073ffffffffffffffffffffffffffffffffffffffff166004600083815260200190815260200160002060020160009054906101000a900473ffffffffffffffffffffffffffffffffffffffff1673ffffffffffffffffffffffffffffffffffffffff1603612766576040517f08c379a000000000000000000000000000000000000000000000000000000000815260040161275d90615d7c565b60405180910390fd5b6004600082815260200190815260200160002060020160009054906101000a900473ffffffffffffffffffffffffffffffffffffffff1673ffffffffffffffffffffffffffffffffffffffff163373ffffffffffffffffffffffffffffffffffffffff161461280a576040517f08c379a000000000000000000000000000000000000000000000000000000000815260040161280190615e0e565b60405180910390fd5b8160016004600083815260200190815260200160002060050160019054906101000a900460ff16612870576040517f08c379a000000000000000000000000000000000000000000000000000000000815260040161286790614ef7565b60405180910390fd5b8060058111156128835761288261477e565b5b6004600084815260200190815260200160002060050160009054906101000a900460ff1660058111156128b9576128b861477e565b5b146128f9576040517f08c379a00000000000000000000000000000000000000000000000000000000081526004016128f0906152a9565b60405180910390fd5b612901613f7f565b60006004600086815260200190815260200160002090506000805b82600601805490508110156129a7578260060181815481106129415761294061503b565b5b906000526020600020906003020160020160009054906101000a900460ff1661299a5782600601818154811061297a5761297961503b565b5b906000526020600020906003020160010154826129979190615099565b91505b808060010191505061291c565b5060058260050160006101000a81548160ff021916908360058111156129d0576129cf61477e565b5b02179055506000811115612b8157600073ffffffffffffffffffffffffffffffffffffffff168260080160009054906101000a900473ffffffffffffffffffffffffffffffffffffffff1673ffffffffffffffffffffffffffffffffffffffff1603612b0c5760008260010160009054906101000a900473ffffffffffffffffffffffffffffffffffffffff1673ffffffffffffffffffffffffffffffffffffffff1682604051612a80906150fe565b60006040518083038185875af1925050503d8060008114612abd576040519150601f19603f3d011682016040523d82523d6000602084013e612ac2565b606091505b5050905080612b06576040517f08c379a0000000000000000000000000000000000000000000000000000000008152600401612afd90615185565b60405180910390fd5b50612b80565b612b7f8260010160009054906101000a900473ffffffffffffffffffffffffffffffffffffffff16828460080160009054906101000a900473ffffffffffffffffffffffffffffffffffffffff1673ffffffffffffffffffffffffffffffffffffffff16613fc59092919063ffffffff16565b5b5b857f1505dc0fd718dce43c94982367ffd6d61bfa742ca6d109fadfe523c80f74f75a82604051612bb191906142f6565b60405180910390a25050612bc3614044565b50505050565b816004600082815260200190815260200160002060050160019054906101000a900460ff16612c2d576040517f08c379a0000000000000000000000000000000000000000000000000000000008152600401612c2490614ef7565b60405180910390fd5b6004600082815260200190815260200160002060010160009054906101000a900473ffffffffffffffffffffffffffffffffffffffff1673ffffffffffffffffffffffffffffffffffffffff163373ffffffffffffffffffffffffffffffffffffffff1614612cd1576040517f08c379a0000000000000000000000000000000000000000000000000000000008152600401612cc890614f89565b60405180910390fd5b8260016004600083815260200190815260200160002060050160019054906101000a900460ff16612d37576040517f08c379a0000000000000000000000000000000000000000000000000000000008152600401612d2e90614ef7565b60405180910390fd5b806005811115612d4a57612d4961477e565b5b6004600084815260200190815260200160002060050160009054906101000a900460ff166005811115612d8057612d7f61477e565b5b14612dc0576040517f08c379a0000000000000000000000000000000000000000000000000000000008152600401612db7906152a9565b60405180910390fd5b612dc8613f7f565b600060046000878152602001908152602001600020905080600601805490508510612e28576040517f08c379a0000000000000000000000000000000000000000000000000000000008152600401612e1f90615ea0565b60405180910390fd5b806006018581548110612e3e57612e3d61503b565b5b906000526020600020906003020160020160009054906101000a900460ff1615612e9d576040517f08c379a0000000000000000000000000000000000000000000000000000000008152600401612e9490615f32565b60405180910390fd5b6000816006018681548110612eb557612eb461503b565b5b90600052602060002090600302016001015490506001826006018781548110612ee157612ee061503b565b5b906000526020600020906003020160020160006101000a81548160ff021916908315150217905550816007016000815480929190612f1e906153a0565b91905055508160060180549050826007015403613279576000600c6000898152602001908152602001600020549050600042905080600d60008b8152602001908152602001600020819055508360020160009054906101000a900473ffffffffffffffffffffffffffffffffffffffff1673ffffffffffffffffffffffffffffffffffffffff16897f43665d08f32af3556ecdcec0e26671fc253ba64b93c43eb2cc1cdb9b0a1e4dab84848686612fd59190615335565b604051612fe493929190615369565b60405180910390a360038460050160006101000a81548160ff021916908360058111156130145761301361477e565b5b021790555060008460020160009054906101000a900473ffffffffffffffffffffffffffffffffffffffff169050600660008273ffffffffffffffffffffffffffffffffffffffff1673ffffffffffffffffffffffffffffffffffffffff1681526020019081526020016000206000815480929190613092906153a0565b91905055508460030154600760008373ffffffffffffffffffffffffffffffffffffffff1673ffffffffffffffffffffffffffffffffffffffff16815260200190815260200160002060008282546130ea9190615099565b925050819055508073ffffffffffffffffffffffffffffffffffffffff167f37f167154aced6254056a546c0ac25475a4a2efbb93890657dde7ced2513fe61600660008473ffffffffffffffffffffffffffffffffffffffff1673ffffffffffffffffffffffffffffffffffffffff16815260200190815260200160002054600760008573ffffffffffffffffffffffffffffffffffffffff1673ffffffffffffffffffffffffffffffffffffffff168152602001908152602001600020546040516131b79291906153e8565b60405180910390a2600073ffffffffffffffffffffffffffffffffffffffff16600860009054906101000a900473ffffffffffffffffffffffffffffffffffffffff1673ffffffffffffffffffffffffffffffffffffffff161415801561322057506000600954115b156132755761327481600954600860009054906101000a900473ffffffffffffffffffffffffffffffffffffffff1673ffffffffffffffffffffffffffffffffffffffff16613fc59092919063ffffffff16565b5b5050505b600073ffffffffffffffffffffffffffffffffffffffff168260080160009054906101000a900473ffffffffffffffffffffffffffffffffffffffff1673ffffffffffffffffffffffffffffffffffffffff16036133a75760008260020160009054906101000a900473ffffffffffffffffffffffffffffffffffffffff1673ffffffffffffffffffffffffffffffffffffffff168260405161331b906150fe565b60006040518083038185875af1925050503d8060008114613358576040519150601f19603f3d011682016040523d82523d6000602084013e61335d565b606091505b50509050806133a1576040517f08c379a000000000000000000000000000000000000000000000000000000000815260040161339890615fc4565b60405180910390fd5b5061341b565b61341a8260020160009054906101000a900473ffffffffffffffffffffffffffffffffffffffff16828460080160009054906101000a900473ffffffffffffffffffffffffffffffffffffffff1673ffffffffffffffffffffffffffffffffffffffff16613fc59092919063ffffffff16565b5b8160020160009054906101000a900473ffffffffffffffffffffffffffffffffffffffff1673ffffffffffffffffffffffffffffffffffffffff1686887f4ca7615a45ed3d595a035f53d17e532a7e108ae0da41df95b87a7a13178a57238460405161348791906142f6565b60405180910390a45050613499614044565b5050505050565b6134a8614172565b6004600084815260200190815260200160002060050160019054906101000a900460ff1661350b576040517f08c379a000000000000000000000000000000000000000000000000000000000815260040161350290614ef7565b60405180910390fd5b60046000848152602001908152602001600020600601805490508210613566576040517f08c379a000000000000000000000000000000000000000000000000000000000815260040161355d90615ea0565b60405180910390fd5b60046000848152602001908152602001600020600601828154811061358e5761358d61503b565b5b90600052602060002090600302016040518060600160405290816000820180546135b79061561f565b80601f01602080910402602001604051908101604052809291908181526020018280546135e39061561f565b80156136305780601f1061360557610100808354040283529160200191613630565b820191906000526020600020905b81548152906001019060200180831161361357829003601f168201915b50505050508152602001600182015481526020016002820160009054906101000a900460ff161515151581525050905092915050565b600c6020528060005260406000206000915090505481565b6002602052806000526040600020600091509050805461369d9061561f565b80601f01602080910402602001604051908101604052809291908181526020018280546136c99061561f565b80156137165780601f106136eb57610100808354040283529160200191613716565b820191906000526020600020905b8154815290600101906020018083116136f957829003601f168201915b505050505081565b613726614195565b6004600083815260200190815260200160002060050160019054906101000a900460ff16613789576040517f08c379a000000000000000000000000000000000000000000000000000000000815260040161378090614ef7565b60405180910390fd5b6004600083815260200190815260200160002060405180610140016040529081600082015481526020016001820160009054906101000a900473ffffffffffffffffffffffffffffffffffffffff1673ffffffffffffffffffffffffffffffffffffffff1673ffffffffffffffffffffffffffffffffffffffff1681526020016002820160009054906101000a900473ffffffffffffffffffffffffffffffffffffffff1673ffffffffffffffffffffffffffffffffffffffff1673ffffffffffffffffffffffffffffffffffffffff168152602001600382015481526020016004820180546138789061561f565b80601f01602080910402602001604051908101604052809291908181526020018280546138a49061561f565b80156138f15780601f106138c6576101008083540402835291602001916138f1565b820191906000526020600020905b8154815290600101906020018083116138d457829003601f168201915b505050505081526020016005820160009054906101000a900460ff16600581111561391f5761391e61477e565b5b60058111156139315761393061477e565b5b81526020016005820160019054906101000a900460ff1615151515815260200160068201805480602002602001604051908101604052809291908181526020016000905b82821015613a5e57838290600052602060002090600302016040518060600160405290816000820180546139a89061561f565b80601f01602080910402602001604051908101604052809291908181526020018280546139d49061561f565b8015613a215780601f106139f657610100808354040283529160200191613a21565b820191906000526020600020905b815481529060010190602001808311613a0457829003601f168201915b50505050508152602001600182015481526020016002820160009054906101000a900460ff16151515158152505081526020019060010190613975565b505050508152602001600782015481526020016008820160009054906101000a900473ffffffffffffffffffffffffffffffffffffffff1673ffffffffffffffffffffffffffffffffffffffff1673ffffffffffffffffffffffffffffffffffffffff16815250509050919050565b600b6020528160005260406000208181548110613ae957600080fd5b906000526020600020016000915091509054906101000a900473ffffffffffffffffffffffffffffffffffffffff1681565b8060006004600083815260200190815260200160002060050160019054906101000a900460ff16613b81576040517f08c379a0000000000000000000000000000000000000000000000000000000008152600401613b7890614ef7565b60405180910390fd5b806005811115613b9457613b9361477e565b5b6004600084815260200190815260200160002060050160009054906101000a900460ff166005811115613bca57613bc961477e565b5b14613c0a576040517f08c379a0000000000000000000000000000000000000000000000000000000008152600401613c01906152a9565b60405180910390fd5b613c12613f7f565b600073ffffffffffffffffffffffffffffffffffffffff16600860009054906101000a900473ffffffffffffffffffffffffffffffffffffffff1673ffffffffffffffffffffffffffffffffffffffff1614158015613c7357506000600954115b613cb2576040517f08c379a0000000000000000000000000000000000000000000000000000000008152600401613ca990616056565b60405180910390fd5b600a600084815260200190815260200160002060003373ffffffffffffffffffffffffffffffffffffffff1673ffffffffffffffffffffffffffffffffffffffff16815260200190815260200160002060009054906101000a900460ff1615613d50576040517f08c379a0000000000000000000000000000000000000000000000000000000008152600401613d47906160c2565b60405180910390fd5b613da13330600954600860009054906101000a900473ffffffffffffffffffffffffffffffffffffffff1673ffffffffffffffffffffffffffffffffffffffff1661404e909392919063ffffffff16565b6001600a600085815260200190815260200160002060003373ffffffffffffffffffffffffffffffffffffffff1673ffffffffffffffffffffffffffffffffffffffff16815260200190815260200160002060006101000a81548160ff021916908315150217905550600b6000848152602001908152602001600020339080600181540180825580915050600190039060005260206000200160009091909190916101000a81548173ffffffffffffffffffffffffffffffffffffffff021916908373ffffffffffffffffffffffffffffffffffffffff160217905550613e86614044565b505050565b600160009054906101000a900473ffffffffffffffffffffffffffffffffffffffff1673ffffffffffffffffffffffffffffffffffffffff163373ffffffffffffffffffffffffffffffffffffffff1614613f1b576040517f08c379a0000000000000000000000000000000000000000000000000000000008152600401613f1290615217565b60405180910390fd5b81600860006101000a81548173ffffffffffffffffffffffffffffffffffffffff021916908373ffffffffffffffffffffffffffffffffffffffff160217905550806009819055505050565b60066020528060005260406000206000915090505481565b600260005403613fbb576040517f3ee5aeb500000000000000000000000000000000000000000000000000000000815260040160405180910390fd5b6002600081905550565b61403f838473ffffffffffffffffffffffffffffffffffffffff1663a9059cbb8585604051602401613ff89291906160e2565b604051602081830303815290604052915060e01b6020820180517bffffffffffffffffffffffffffffffffffffffffffffffffffffffff83818316178352505050506140d0565b505050565b6001600081905550565b6140ca848573ffffffffffffffffffffffffffffffffffffffff166323b872dd8686866040516024016140839392919061610b565b604051602081830303815290604052915060e01b6020820180517bffffffffffffffffffffffffffffffffffffffffffffffffffffffff83818316178352505050506140d0565b50505050565b600080602060008451602086016000885af1806140f3576040513d6000823e3d81fd5b3d92506000519150506000821461410e57600181141561412a565b60008473ffffffffffffffffffffffffffffffffffffffff163b145b1561416c57836040517f5274afe700000000000000000000000000000000000000000000000000000000815260040161416391906144d9565b60405180910390fd5b50505050565b604051806060016040528060608152602001600081526020016000151581525090565b60405180610140016040528060008152602001600073ffffffffffffffffffffffffffffffffffffffff168152602001600073ffffffffffffffffffffffffffffffffffffffff1681526020016000815260200160608152602001600060058111156142045761420361477e565b5b81526020016000151581526020016060815260200160008152602001600073ffffffffffffffffffffffffffffffffffffffff1681525090565b6000604051905090565b600080fd5b600080fd5b600073ffffffffffffffffffffffffffffffffffffffff82169050919050565b600061427d82614252565b9050919050565b61428d81614272565b811461429857600080fd5b50565b6000813590506142aa81614284565b92915050565b6000602082840312156142c6576142c5614248565b5b60006142d48482850161429b565b91505092915050565b6000819050919050565b6142f0816142dd565b82525050565b600060208201905061430b60008301846142e7565b92915050565b61431a816142dd565b811461432557600080fd5b50565b60008135905061433781614311565b92915050565b60006020828403121561435357614352614248565b5b600061436184828501614328565b91505092915050565b60008115159050919050565b61437f8161436a565b811461438a57600080fd5b50565b60008135905061439c81614376565b92915050565b600080604083850312156143b9576143b8614248565b5b60006143c785828601614328565b92505060206143d88582860161438d565b9150509250929050565b60006143ed82614252565b9050919050565b6143fd816143e2565b811461440857600080fd5b50565b60008135905061441a816143f4565b92915050565b6000806040838503121561443757614436614248565b5b600061444585828601614328565b92505060206144568582860161440b565b9150509250929050565b6000806040838503121561447757614476614248565b5b600061448585828601614328565b92505060206144968582860161429b565b9150509250929050565b6144a98161436a565b82525050565b60006020820190506144c460008301846144a0565b92915050565b6144d381614272565b82525050565b60006020820190506144ee60008301846144ca565b92915050565b600081519050919050565b600082825260208201905092915050565b60005b8381101561452e578082015181840152602081019050614513565b60008484015250505050565b6000601f19601f8301169050919050565b6000614556826144f4565b61456081856144ff565b9350614570818560208601614510565b6145798161453a565b840191505092915050565b600060a08201905061459960008301886144ca565b81810360208301526145ab818761454b565b90506145ba60408301866144a0565b6145c760608301856144a0565b6145d460808301846144a0565b9695505050505050565b600080fd5b600080fd5b7f4e487b7100000000000000000000000000000000000000000000000000000000600052604160045260246000fd5b6146208261453a565b810181811067ffffffffffffffff8211171561463f5761463e6145e8565b5b80604052505050565b600061465261423e565b905061465e8282614617565b919050565b600067ffffffffffffffff82111561467e5761467d6145e8565b5b6146878261453a565b9050602081019050919050565b82818337600083830152505050565b60006146b66146b184614663565b614648565b9050828152602081018484840111156146d2576146d16145e3565b5b6146dd848285614694565b509392505050565b600082601f8301126146fa576146f96145de565b5b813561470a8482602086016146a3565b91505092915050565b6000806040838503121561472a57614729614248565b5b600061473885828601614328565b925050602083013567ffffffffffffffff8111156147595761475861424d565b5b614765858286016146e5565b9150509250929050565b614778816143e2565b82525050565b7f4e487b7100000000000000000000000000000000000000000000000000000000600052602160045260246000fd5b600681106147be576147bd61477e565b5b50565b60008190506147cf826147ad565b919050565b60006147df826147c1565b9050919050565b6147ef816147d4565b82525050565b60006101208201905061480b600083018c6142e7565b614818602083018b61476f565b614825604083018a61476f565b61483260608301896142e7565b8181036080830152614844818861454b565b905061485360a08301876147e6565b61486060c08301866144a0565b61486d60e08301856142e7565b61487b6101008301846144ca565b9a9950505050505050505050565b600067ffffffffffffffff8211156148a4576148a36145e8565b5b602082029050602081019050919050565b600080fd5b60006148cd6148c884614889565b614648565b905080838252602082019050602084028301858111156148f0576148ef6148b5565b5b835b8181101561493757803567ffffffffffffffff811115614915576149146145de565b5b80860161492289826146e5565b855260208501945050506020810190506148f2565b5050509392505050565b600082601f830112614956576149556145de565b5b81356149668482602086016148ba565b91505092915050565b600067ffffffffffffffff82111561498a576149896145e8565b5b602082029050602081019050919050565b60006149ae6149a98461496f565b614648565b905080838252602082019050602084028301858111156149d1576149d06148b5565b5b835b818110156149fa57806149e68882614328565b8452602084019350506020810190506149d3565b5050509392505050565b600082601f830112614a1957614a186145de565b5b8135614a2984826020860161499b565b91505092915050565b60008060008060808587031215614a4c57614a4b614248565b5b6000614a5a8782880161429b565b945050602085013567ffffffffffffffff811115614a7b57614a7a61424d565b5b614a87878288016146e5565b935050604085013567ffffffffffffffff811115614aa857614aa761424d565b5b614ab487828801614941565b925050606085013567ffffffffffffffff811115614ad557614ad461424d565b5b614ae187828801614a04565b91505092959194509250565b60008060408385031215614b0457614b03614248565b5b6000614b1285828601614328565b9250506020614b2385828601614328565b9150509250929050565b600082825260208201905092915050565b6000614b49826144f4565b614b538185614b2d565b9350614b63818560208601614510565b614b6c8161453a565b840191505092915050565b614b80816142dd565b82525050565b614b8f8161436a565b82525050565b60006060830160008301518482036000860152614bb28282614b3e565b9150506020830151614bc76020860182614b77565b506040830151614bda6040860182614b86565b508091505092915050565b60006020820190508181036000830152614bff8184614b95565b905092915050565b60006020820190508181036000830152614c21818461454b565b905092915050565b614c32816143e2565b82525050565b614c41816147d4565b82525050565b600081519050919050565b600082825260208201905092915050565b6000819050602082019050919050565b60006060830160008301518482036000860152614c908282614b3e565b9150506020830151614ca56020860182614b77565b506040830151614cb86040860182614b86565b508091505092915050565b6000614ccf8383614c73565b905092915050565b6000602082019050919050565b6000614cef82614c47565b614cf98185614c52565b935083602082028501614d0b85614c63565b8060005b85811015614d475784840389528151614d288582614cc3565b9450614d3383614cd7565b925060208a01995050600181019050614d0f565b50829750879550505050505092915050565b614d6281614272565b82525050565b600061014083016000830151614d816000860182614b77565b506020830151614d946020860182614c29565b506040830151614da76040860182614c29565b506060830151614dba6060860182614b77565b5060808301518482036080860152614dd28282614b3e565b91505060a0830151614de760a0860182614c38565b5060c0830151614dfa60c0860182614b86565b5060e083015184820360e0860152614e128282614ce4565b915050610100830151614e29610100860182614b77565b50610120830151614e3e610120860182614d59565b508091505092915050565b60006020820190508181036000830152614e638184614d68565b905092915050565b60008060408385031215614e8257614e81614248565b5b6000614e908582860161429b565b9250506020614ea185828601614328565b9150509250929050565b7f476967457363726f773a2047696720646f6573206e6f74206578697374000000600082015250565b6000614ee1601d836144ff565b9150614eec82614eab565b602082019050919050565b60006020820190508181036000830152614f1081614ed4565b9050919050565b7f476967457363726f773a204f6e6c792074686520636c69656e742063616e206360008201527f616c6c2074686973000000000000000000000000000000000000000000000000602082015250565b6000614f736028836144ff565b9150614f7e82614f17565b604082019050919050565b60006020820190508181036000830152614fa281614f66565b9050919050565b7f476967457363726f773a204769672063616e6e6f742062652063616e63656c6c60008201527f656420696e206974732063757272656e74207374617465000000000000000000602082015250565b60006150056037836144ff565b915061501082614fa9565b604082019050919050565b6000602082019050818103600083015261503481614ff8565b9050919050565b7f4e487b7100000000000000000000000000000000000000000000000000000000600052603260045260246000fd5b7f4e487b7100000000000000000000000000000000000000000000000000000000600052601160045260246000fd5b60006150a4826142dd565b91506150af836142dd565b92508282019050808211156150c7576150c661506a565b5b92915050565b600081905092915050565b50565b60006150e86000836150cd565b91506150f3826150d8565b600082019050919050565b6000615109826150db565b9150819050919050565b7f476967457363726f773a204661696c656420746f20726566756e64204554482060008201527f746f20636c69656e740000000000000000000000000000000000000000000000602082015250565b600061516f6029836144ff565b915061517a82615113565b604082019050919050565b6000602082019050818103600083015261519e81615162565b9050919050565b7f476967457363726f773a204f6e6c792061726269747261746f722063616e206360008201527f616c6c0000000000000000000000000000000000000000000000000000000000602082015250565b60006152016023836144ff565b915061520c826151a5565b604082019050919050565b60006020820190508181036000830152615230816151f4565b9050919050565b7f476967457363726f773a20476967206973206e6f7420696e207468652072657160008201527f7569726564207374617465000000000000000000000000000000000000000000602082015250565b6000615293602b836144ff565b915061529e82615237565b604082019050919050565b600060208201905081810360008301526152c281615286565b9050919050565b7f476967457363726f773a204e6f20616374697665206469737075746500000000600082015250565b60006152ff601c836144ff565b915061530a826152c9565b602082019050919050565b6000602082019050818103600083015261532e816152f2565b9050919050565b6000615340826142dd565b915061534b836142dd565b92508282039050818111156153635761536261506a565b5b92915050565b600060608201905061537e60008301866142e7565b61538b60208301856142e7565b61539860408301846142e7565b949350505050565b60006153ab826142dd565b91507fffffffffffffffffffffffffffffffffffffffffffffffffffffffffffffffff82036153dd576153dc61506a565b5b600182019050919050565b60006040820190506153fd60008301856142e7565b61540a60208301846142e7565b9392505050565b7f476967457363726f773a2044697370757465207472616e73666572206661696c60008201527f6564000000000000000000000000000000000000000000000000000000000000602082015250565b600061546d6022836144ff565b915061547882615411565b604082019050919050565b6000602082019050818103600083015261549c81615460565b9050919050565b60006040820190506154b860008301856144a0565b6154c560208301846142e7565b9392505050565b7f476967457363726f773a20467265656c616e636572206164647265737320636160008201527f6e6e6f74206265207a65726f0000000000000000000000000000000000000000602082015250565b6000615528602c836144ff565b9150615533826154cc565b604082019050919050565b600060208201905081810360008301526155578161551b565b9050919050565b7f476967457363726f773a20467265656c616e63657220646964206e6f7420626960008201527f6400000000000000000000000000000000000000000000000000000000000000602082015250565b60006155ba6021836144ff565b91506155c58261555e565b604082019050919050565b600060208201905081810360008301526155e9816155ad565b9050919050565b7f4e487b7100000000000000000000000000000000000000000000000000000000600052602260045260246000fd5b6000600282049050600182168061563757607f821691505b60208210810361564a576156496155f0565b5b50919050565b7f476967457363726f773a204f6e6c792067696720706172746965732063616e2060008201527f7261697365206469737075746500000000000000000000000000000000000000602082015250565b60006156ac602d836144ff565b91506156b782615650565b604082019050919050565b600060208201905081810360008301526156db8161569f565b9050919050565b7f476967457363726f773a204469737075746520616c726561647920726169736560008201527f6400000000000000000000000000000000000000000000000000000000000000602082015250565b600061573e6021836144ff565b9150615749826156e2565b604082019050919050565b6000602082019050818103600083015261576d81615731565b9050919050565b60008190508160005260206000209050919050565b60006020601f8301049050919050565b600082821b905092915050565b6000600883026157d67fffffffffffffffffffffffffffffffffffffffffffffffffffffffffffffffff82615799565b6157e08683615799565b95508019841693508086168417925050509392505050565b6000819050919050565b600061581d615818615813846142dd565b6157f8565b6142dd565b9050919050565b6000819050919050565b61583783615802565b61584b61584382615824565b8484546157a6565b825550505050565b600090565b615860615853565b61586b81848461582e565b505050565b5b8181101561588f57615884600082615858565b600181019050615871565b5050565b601f8211156158d4576158a581615774565b6158ae84615789565b810160208510156158bd578190505b6158d16158c985615789565b830182615870565b50505b505050565b600082821c905092915050565b60006158f7600019846008026158d9565b1980831691505092915050565b600061591083836158e6565b9150826002028217905092915050565b615929826144f4565b67ffffffffffffffff811115615942576159416145e8565b5b61594c825461561f565b615957828285615893565b600060209050601f83116001811461598a5760008415615978578287015190505b6159828582615904565b8655506159ea565b601f19841661599886615774565b60005b828110156159c05784890151825560018201915060208501945060208101905061599b565b868310156159dd57848901516159d9601f8916826158e6565b8355505b6001600288020188555050505b505050505050565b7f476967457363726f773a204d7573742068617665206174206c65617374206f6e60008201527f65206d696c6573746f6e65000000000000000000000000000000000000000000602082015250565b6000615a4e602b836144ff565b9150615a59826159f2565b604082019050919050565b60006020820190508181036000830152615a7d81615a41565b9050919050565b7f476967457363726f773a204d696c6573746f6e65206465736372697074696f6e60008201527f7320616e642076616c75657320636f756e74206d69736d617463680000000000602082015250565b6000615ae0603b836144ff565b9150615aeb82615a84565b604082019050919050565b60006020820190508181036000830152615b0f81615ad3565b9050919050565b7f476967457363726f773a204d696c6573746f6e652076616c7565206d7573742060008201527f626520706f736974697665000000000000000000000000000000000000000000602082015250565b6000615b72602b836144ff565b9150615b7d82615b16565b604082019050919050565b60006020820190508181036000830152615ba181615b65565b9050919050565b7f476967457363726f773a2053656e7420455448206d757374206d61746368207460008201527f6f74616c206d696c6573746f6e652076616c7565730000000000000000000000602082015250565b6000615c046035836144ff565b9150615c0f82615ba8565b604082019050919050565b60006020820190508181036000830152615c3381615bf7565b9050919050565b7f476967457363726f773a20446f206e6f742073656e642045544820666f72204560008201527f5243323020676967730000000000000000000000000000000000000000000000602082015250565b6000615c966029836144ff565b9150615ca182615c3a565b604082019050919050565b60006020820190508181036000830152615cc581615c89565b9050919050565b6000606082019050615ce160008301866142e7565b8181036020830152615cf3818561454b565b9050615d0260408301846142e7565b949350505050565b7f476967457363726f773a20467265656c616e636572206e6f742061737369676e60008201527f6564000000000000000000000000000000000000000000000000000000000000602082015250565b6000615d666022836144ff565b9150615d7182615d0a565b604082019050919050565b60006020820190508181036000830152615d9581615d59565b9050919050565b7f476967457363726f773a204f6e6c792074686520667265656c616e636572206360008201527f616e2063616c6c20746869730000000000000000000000000000000000000000602082015250565b6000615df8602c836144ff565b9150615e0382615d9c565b604082019050919050565b60006020820190508181036000830152615e2781615deb565b9050919050565b7f476967457363726f773a20496e76616c6964206d696c6573746f6e6520696e6460008201527f6578000000000000000000000000000000000000000000000000000000000000602082015250565b6000615e8a6022836144ff565b9150615e9582615e2e565b604082019050919050565b60006020820190508181036000830152615eb981615e7d565b9050919050565b7f476967457363726f773a204d696c6573746f6e6520616c726561647920636f6d60008201527f706c657465640000000000000000000000000000000000000000000000000000602082015250565b6000615f1c6026836144ff565b9150615f2782615ec0565b604082019050919050565b60006020820190508181036000830152615f4b81615f0f565b9050919050565b7f476967457363726f773a204661696c656420746f2073656e642045544820746f60008201527f20667265656c616e636572000000000000000000000000000000000000000000602082015250565b6000615fae602b836144ff565b9150615fb982615f52565b604082019050919050565b60006020820190508181036000830152615fdd81615fa1565b9050919050565b7f476967457363726f773a205374616b696e67206e6f7420636f6e66696775726560008201527f6400000000000000000000000000000000000000000000000000000000000000602082015250565b60006160406021836144ff565b915061604b82615fe4565b604082019050919050565b6000602082019050818103600083015261606f81616033565b9050919050565b7f476967457363726f773a20416c72656164792062696400000000000000000000600082015250565b60006160ac6016836144ff565b91506160b782616076565b602082019050919050565b600060208201905081810360008301526160db8161609f565b9050919050565b60006040820190506160f760008301856144ca565b61610460208301846142e7565b9392505050565b600060608201905061612060008301866144ca565b61612d60208301856144ca565b61613a60408301846142e7565b94935050505056fea2646970667358221220f419d2f8ebda6b2308fe94aa22e6800d4c5113c64bea146b7d06c49c3e4b388564736f6c634300081c0033",
  "linkReferences": {},
  "deployedLinkReferences": {}
}