{
  "_format": "hh-sol-artifact-1",
  "contractName": "GigEscrow",
  "sourceName": "contracts/GigEscrow.sol",
  "abi": [
    {
      "inputs": [],
      "stateMutability": "nonpayable",
      "type": "constructor"
    },
    {
      "inputs": [],
      "name": "ReentrancyGuardReentrantCall",
      "type": "error"
    },
    {
      "inputs": [
        {
          "internalType": "address",
          "name": "token",
          "type": "address"
        }
      ],
      "name": "SafeERC20FailedOperation",
      "type": "error"
    },
    {
      "anonymous": false,
      "inputs": [
        {
          "indexed": true,
          "internalType": "uint256",
          "name": "gigId",
          "type": "uint256"
        },
        {
          "indexed": true,
          "internalType": "address",
          "name": "by",
          "type": "address"
        },
        {
          "indexed": false,
          "internalType": "string",
          "name": "reason",
          "type": "string"
        }
      ],
      "name": "DisputeRaised",
      "type": "event"
    },
    {
      "anonymous": false,
      "inputs": [
        {
          "indexed": true,
          "internalType": "uint256",
          "name": "gigId",
          "type": "uint256"
        },
        {
          "indexed": false,
          "internalType": "bool",
          "name": "freelancerWins",
          "type": "bool"
        },
        {
          "indexed": false,
          "internalType": "uint256",
          "name": "amount",
          "type": "uint256"
        }
      ],
      "name": "DisputeResolved",
      "type": "event"
    },
    {
      "anonymous": false,
      "inputs": [
        {
          "indexed": true,
          "internalType": "address",
          "name": "freelancer",
          "type": "address"
        },
        {
          "indexed": false,
          "internalType": "uint256",
          "name": "completedGigs",
          "type": "uint256"
        },
        {
          "indexed": false,
          "internalType": "uint256",
          "name": "totalEarned",
          "type": "uint256"
        }
      ],
      "name": "FreelancerReputationUpdated",
      "type": "event"
    },
    {
      "anonymous": false,
      "inputs": [
        {
          "indexed": true,
          "internalType": "uint256",
          "name": "gigId",
          "type": "uint256"
        },
        {
          "indexed": true,
          "internalType": "address",
          "name": "freelancer",
          "type": "address"
        }
      ],
      "name": "FreelancerSelected",
      "type": "event"
    },
    {
      "anonymous": false,
      "inputs": [
        {
          "indexed": true,
          "internalType": "uint256",
          "name": "gigId",
          "type": "uint256"
        },
        {
          "indexed": false,
          "internalType": "uint256",
          "name": "refundAmount",
          "type": "uint256"
        }
      ],
      "name": "GigCancelledByClient",
      "type": "event"
    },
    {
      "anonymous": false,
      "inputs": [
        {
          "indexed": true,
          "internalType": "uint256",
          "name": "gigId",
          "type": "uint256"
        },
        {
          "indexed": false,
          "internalType": "uint256",
          "name": "refundAmount",
          "type": "uint256"
        }
      ],
      "name": "GigCancelledByFreelancer",
      "type": "event"
    },
    {
      "anonymous": false,
      "inputs": [
        {
          "indexed": true,
          "internalType": "uint256",
          "name": "gigId",
          "type": "uint256"
        },
        {
          "indexed": true,
          "internalType": "address",
          "name": "freelancer",
          "type": "address"
        },
        {
          "indexed": false,
          "internalType": "uint256",
          "name": "startTime",
          "type": "uint256"
        },
        {
          "indexed": false,
          "internalType": "uint256",
          "name": "completionTime",
          "type": "uint256"
        },
        {
          "indexed": false,
          "internalType": "uint256",
          "name": "duration",
          "type": "uint256"
        }
      ],
      "name": "GigCompletedDetailed",
      "type": "event"
    },
    {
      "anonymous": false,
      "inputs": [
        {
          "indexed": true,
          "internalType": "uint256",
          "name": "gigId",
          "type": "uint256"
        },
        {
          "indexed": true,
          "internalType": "address",
          "name": "client",
          "type": "address"
        },
        {
          "indexed": false,
          "internalType": "uint256",
          "name": "totalBudget",
          "type": "uint256"
        },
        {
          "indexed": false,
          "internalType": "string",
          "name": "description",
          "type": "string"
        },
        {
          "indexed": false,
          "internalType": "uint256",
          "name": "milestoneCount",
          "type": "uint256"
        }
      ],
      "name": "GigPosted",
      "type": "event"
    },
    {
      "anonymous": false,
      "inputs": [
        {
          "indexed": true,
          "internalType": "uint256",
          "name": "gigId",
          "type": "uint256"
        },
        {
          "indexed": true,
          "internalType": "address",
          "name": "freelancer",
          "type": "address"
        },
        {
          "indexed": false,
          "internalType": "uint256",
          "name": "startTime",
          "type": "uint256"
        }
      ],
      "name": "GigStarted",
      "type": "event"
    },
    {
      "anonymous": false,
      "inputs": [
        {
          "indexed": true,
          "internalType": "uint256",
          "name": "gigId",
          "type": "uint256"
        },
        {
          "indexed": true,
          "internalType": "uint256",
          "name": "milestoneIndex",
          "type": "uint256"
        },
        {
          "indexed": true,
          "internalType": "address",
          "name": "freelancer",
          "type": "address"
        },
        {
          "indexed": false,
          "internalType": "uint256",
          "name": "amount",
          "type": "uint256"
        }
      ],
      "name": "MilestonePaymentReleased",
      "type": "event"
    },
    {
      "stateMutability": "payable",
      "type": "fallback"
    },
    {
      "inputs": [],
      "name": "arbitrator",
      "outputs": [
        {
          "internalType": "address",
          "name": "",
          "type": "address"
        }
      ],
      "stateMutability": "view",
      "type": "function"
    },
    {
      "inputs": [
        {
          "internalType": "uint256",
          "name": "",
          "type": "uint256"
        }
      ],
      "name": "badgeUrisByCount",
      "outputs": [
        {
          "internalType": "string",
          "name": "",
          "type": "string"
        }
      ],
      "stateMutability": "view",
      "type": "function"
    },
    {
      "inputs": [
        {
          "internalType": "uint256",
          "name": "_gigId",
          "type": "uint256"
        }
      ],
      "name": "bidGig",
      "outputs": [],
      "stateMutability": "nonpayable",
      "type": "function"
    },
    {
      "inputs": [
        {
          "internalType": "uint256",
          "name": "",
          "type": "uint256"
        },
        {
          "internalType": "uint256",
          "name": "",
          "type": "uint256"
        }
      ],
      "name": "bidders",
      "outputs": [
        {
          "internalType": "address",
          "name": "",
          "type": "address"
        }
      ],
      "stateMutability": "view",
      "type": "function"
    },
    {
      "inputs": [
        {
          "internalType": "uint256",
          "name": "_gigId",
          "type": "uint256"
        }
      ],
      "name": "cancelGigByClient",
      "outputs": [],
      "stateMutability": "nonpayable",
      "type": "function"
    },
    {
      "inputs": [
        {
          "internalType": "uint256",
          "name": "_gigId",
          "type": "uint256"
        }
      ],
      "name": "cancelGigByFreelancer",
      "outputs": [],
      "stateMutability": "nonpayable",
      "type": "function"
    },
    {
      "inputs": [
        {
          "internalType": "uint256",
          "name": "",
          "type": "uint256"
        }
      ],
      "name": "disputes",
      "outputs": [
        {
          "internalType": "address",
          "name": "raisedBy",
          "type": "address"
        },
        {
          "internalType": "string",
          "name": "reason",
          "type": "string"
        },
        {
          "internalType": "bool",
          "name": "exists",
          "type": "bool"
        },
        {
          "internalType": "bool",
          "name": "resolved",
          "type": "bool"
        },
        {
          "internalType": "bool",
          "name": "freelancerWins",
          "type": "bool"
        }
      ],
      "stateMutability": "view",
      "type": "function"
    },
    {
      "inputs": [
        {
          "internalType": "address",
          "name": "",
          "type": "address"
        }
      ],
      "name": "freelancerCompletedGigs",
      "outputs": [
        {
          "internalType": "uint256",
          "name": "",
          "type": "uint256"
        }
      ],
      "stateMutability": "view",
      "type": "function"
    },
    {
      "inputs": [
        {
          "internalType": "address",
          "name": "",
          "type": "address"
        }
      ],
      "name": "freelancerTotalEarned",
      "outputs": [
        {
          "internalType": "uint256",
          "name": "",
          "type": "uint256"
        }
      ],
      "stateMutability": "view",
      "type": "function"
    },
    {
      "inputs": [
        {
          "internalType": "address",
          "name": "_freelancer",
          "type": "address"
        }
      ],
      "name": "getFreelancerCompletedGigs",
      "outputs": [
        {
          "internalType": "uint256",
          "name": "",
          "type": "uint256"
        }
      ],
      "stateMutability": "view",
      "type": "function"
    },
    {
      "inputs": [
        {
          "internalType": "address",
          "name": "_freelancer",
          "type": "address"
        }
      ],
      "name": "getFreelancerTotalEarned",
      "outputs": [
        {
          "internalType": "uint256",
          "name": "",
          "type": "uint256"
        }
      ],
      "stateMutability": "view",
      "type": "function"
    },
    {
      "inputs": [
        {
          "internalType": "uint256",
          "name": "_gigId",
          "type": "uint256"
        }
      ],
      "name": "getGig",
      "outputs": [
        {
          "components": [
            {
              "internalType": "uint256",
              "name": "gigId",
              "type": "uint256"
            },
            {
              "internalType": "address payable",
              "name": "client",
              "type": "address"
            },
            {
              "internalType": "address payable",
              "name": "freelancer",
              "type": "address"
            },
            {
              "internalType": "uint256",
              "name": "totalBudget",
              "type": "uint256"
            },
            {
              "internalType": "string",
              "name": "description",
              "type": "string"
            },
            {
              "internalType": "enum GigEscrow.State",
              "name": "state",
              "type": "uint8"
            },
            {
              "internalType": "bool",
              "name": "exists",
              "type": "bool"
            },
            {
              "components": [
                {
                  "internalType": "string",
                  "name": "description",
                  "type": "string"
                },
                {
                  "internalType": "uint256",
                  "name": "value",
                  "type": "uint256"
                },
                {
                  "internalType": "bool",
                  "name": "completed",
                  "type": "bool"
                }
              ],
              "internalType": "struct GigEscrow.Milestone[]",
              "name": "milestones",
              "type": "tuple[]"
            },
            {
              "internalType": "uint256",
              "name": "completedMilestoneCount",
              "type": "uint256"
            },
            {
              "internalType": "address",
              "name": "token",
              "type": "address"
            }
          ],
          "internalType": "struct GigEscrow.Gig",
          "name": "",
          "type": "tuple"
        }
      ],
      "stateMutability": "view",
      "type": "function"
    },
    {
      "inputs": [
        {
          "internalType": "uint256",
          "name": "_gigId",
          "type": "uint256"
        },
        {
          "internalType": "uint256",
          "name": "_milestoneIndex",
          "type": "uint256"
        }
      ],
      "name": "getMilestone",
      "outputs": [
        {
          "components": [
            {
              "internalType": "string",
              "name": "description",
              "type": "string"
            },
            {
              "internalType": "uint256",
              "name": "value",
              "type": "uint256"
            },
            {
              "internalType": "bool",
              "name": "completed",
              "type": "bool"
            }
          ],
          "internalType": "struct GigEscrow.Milestone",
          "name": "",
          "type": "tuple"
        }
      ],
      "stateMutability": "view",
      "type": "function"
    },
    {
      "inputs": [
        {
          "internalType": "uint256",
          "name": "",
          "type": "uint256"
        }
      ],
      "name": "gigCompletionTime",
      "outputs": [
        {
          "internalType": "uint256",
          "name": "",
          "type": "uint256"
        }
      ],
      "stateMutability": "view",
      "type": "function"
    },
    {
      "inputs": [
        {
          "internalType": "uint256",
          "name": "",
          "type": "uint256"
        }
      ],
      "name": "gigStartTime",
      "outputs": [
        {
          "internalType": "uint256",
          "name": "",
          "type": "uint256"
        }
      ],
      "stateMutability": "view",
      "type": "function"
    },
    {
      "inputs": [
        {
          "internalType": "uint256",
          "name": "",
          "type": "uint256"
        }
      ],
      "name": "gigs",
      "outputs": [
        {
          "internalType": "uint256",
          "name": "gigId",
          "type": "uint256"
        },
        {
          "internalType": "address payable",
          "name": "client",
          "type": "address"
        },
        {
          "internalType": "address payable",
          "name": "freelancer",
          "type": "address"
        },
        {
          "internalType": "uint256",
          "name": "totalBudget",
          "type": "uint256"
        },
        {
          "internalType": "string",
          "name": "description",
          "type": "string"
        },
        {
          "internalType": "enum GigEscrow.State",
          "name": "state",
          "type": "uint8"
        },
        {
          "internalType": "bool",
          "name": "exists",
          "type": "bool"
        },
        {
          "internalType": "uint256",
          "name": "completedMilestoneCount",
          "type": "uint256"
        },
        {
          "internalType": "address",
          "name": "token",
          "type": "address"
        }
      ],
      "stateMutability": "view",
      "type": "function"
    },
    {
      "inputs": [
        {
          "internalType": "uint256",
          "name": "",
          "type": "uint256"
        },
        {
          "internalType": "address",
          "name": "",
          "type": "address"
        }
      ],
      "name": "hasBid",
      "outputs": [
        {
          "internalType": "bool",
          "name": "",
          "type": "bool"
        }
      ],
      "stateMutability": "view",
      "type": "function"
    },
    {
      "inputs": [
        {
          "internalType": "address",
          "name": "forwarder",
          "type": "address"
        }
      ],
      "name": "isTrustedForwarder",
      "outputs": [
        {
          "internalType": "bool",
          "name": "",
          "type": "bool"
        }
      ],
      "stateMutability": "view",
      "type": "function"
    },
    {
      "inputs": [],
      "name": "nextGigId",
      "outputs": [
        {
          "internalType": "uint256",
          "name": "",
          "type": "uint256"
        }
      ],
      "stateMutability": "view",
      "type": "function"
    },
    {
      "inputs": [
        {
          "internalType": "address",
          "name": "_token",
          "type": "address"
        },
        {
          "internalType": "string",
          "name": "_description",
          "type": "string"
        },
        {
          "internalType": "string[]",
          "name": "_milestoneDescriptions",
          "type": "string[]"
        },
        {
          "internalType": "uint256[]",
          "name": "_milestoneValues",
          "type": "uint256[]"
        }
      ],
      "name": "postGig",
      "outputs": [],
      "stateMutability": "payable",
      "type": "function"
    },
    {
      "inputs": [
        {
          "internalType": "uint256",
          "name": "_gigId",
          "type": "uint256"
        },
        {
          "internalType": "string",
          "name": "_reason",
          "type": "string"
        }
      ],
      "name": "raiseDispute",
      "outputs": [],
      "stateMutability": "nonpayable",
      "type": "function"
    },
    {
      "inputs": [
        {
          "internalType": "uint256",
          "name": "_gigId",
          "type": "uint256"
        },
        {
          "internalType": "uint256",
          "name": "_milestoneIndex",
          "type": "uint256"
        }
      ],
      "name": "releaseMilestonePayment",
      "outputs": [],
      "stateMutability": "nonpayable",
      "type": "function"
    },
    {
      "inputs": [
        {
          "internalType": "uint256",
          "name": "_gigId",
          "type": "uint256"
        },
        {
          "internalType": "bool",
          "name": "_freelancerWins",
          "type": "bool"
        }
      ],
      "name": "resolveDispute",
      "outputs": [],
      "stateMutability": "nonpayable",
      "type": "function"
    },
    {
      "inputs": [
        {
          "internalType": "uint256",
          "name": "_gigId",
          "type": "uint256"
        },
        {
          "internalType": "address payable",
          "name": "_freelancer",
          "type": "address"
        }
      ],
      "name": "selectFreelancer",
      "outputs": [],
      "stateMutability": "nonpayable",
      "type": "function"
    },
    {
      "inputs": [
        {
          "internalType": "address",
          "name": "_stakeToken",
          "type": "address"
        },
        {
          "internalType": "uint256",
          "name": "_stakeAmount",
          "type": "uint256"
        }
      ],
      "name": "setStakeParams",
      "outputs": [],
      "stateMutability": "nonpayable",
      "type": "function"
    },
    {
      "inputs": [],
      "name": "stakeAmount",
      "outputs": [
        {
          "internalType": "uint256",
          "name": "",
          "type": "uint256"
        }
      ],
      "stateMutability": "view",
      "type": "function"
    },
    {
      "inputs": [],
      "name": "stakeToken",
      "outputs": [
        {
          "internalType": "address",
          "name": "",
          "type": "address"
        }
      ],
      "stateMutability": "view",
      "type": "function"
    },
    {
      "inputs": [],
      "name": "trustedForwarder",
      "outputs": [
        {
          "internalType": "address",
          "name": "",
          "type": "address"
        }
      ],
      "stateMutability": "view",
      "type": "function"
    },
    {
      "stateMutability": "payable",
      "type": "receive"
    }
  ],
  "bytecode": "0x60a060405234801561001057600080fd5b5060008073ffffffffffffffffffffffffffffffffffffffff1660808173ffffffffffffffffffffffffffffffffffffffff168152505050600160008190555061005e6100a360201b60201c565b600160006101000a81548173ffffffffffffffffffffffffffffffffffffffff021916908373ffffffffffffffffffffffffffffffffffffffff1602179055506102df565b6000806000369050905060006100bd61012a60201b60201c565b90506100ce3361013360201b60201c565b80156100da5750808210155b156101145760003682846100ee91906101c3565b9080926100fd93929190610201565b906101089190610280565b60601c92505050610127565b61012261017860201b60201c565b925050505b90565b60006014905090565b600061014361018060201b60201c565b73ffffffffffffffffffffffffffffffffffffffff168273ffffffffffffffffffffffffffffffffffffffff16149050919050565b600033905090565b6000608051905090565b6000819050919050565b7f4e487b7100000000000000000000000000000000000000000000000000000000600052601160045260246000fd5b60006101ce8261018a565b91506101d98361018a565b92508282039050818111156101f1576101f0610194565b5b92915050565b600080fd5b600080fd5b60008085851115610215576102146101f7565b5b83861115610226576102256101fc565b5b6001850283019150848603905094509492505050565b600082905092915050565b60007fffffffffffffffffffffffffffffffffffffffff00000000000000000000000082169050919050565b600082821b905092915050565b600061028c838361023c565b826102978135610247565b925060148210156102d7576102d27fffffffffffffffffffffffffffffffffffffffff00000000000000000000000083601403600802610273565b831692505b505092915050565b6080516164556102fa600039600061278401526164556000f3fe6080604052600436106101bb5760003560e01c806367a6971a116100ec5780639d79ae9e1161008a578063d1c1120511610064578063d1c112051461068f578063d57a2c5b146106cc578063e23ae1f8146106f5578063fd45237c1461071e576101bc565b80639d79ae9e146105d8578063a8d75afa14610615578063b3479ed414610652576101bc565b80637da0a877116100c65780637da0a8771461051e578063808d0b88146105495780638c936e65146105725780638ed9895c1461059b576101bc565b806367a6971a1461049a5780636a910049146104d75780636cc6cde1146104f3576101bc565b806355ab6ba3116101595780635aef573c116101335780635aef573c146103c45780635e3fbdc8146103ed57806360c7dc47146104325780636698c7de1461045d576101bc565b806355ab6ba31461031b578063564a565d14610346578063572b6c0514610387576101bc565b806334b25ee21161019557806334b25ee214610261578063380deabc1461028a578063449e8812146102b357806351ed6a30146102f0576101bc565b806312b88c4e146101be5780631da0a237146101fb5780632981571e14610224576101bc565b5b005b3480156101ca57600080fd5b506101e560048036038101906101e091906144b2565b61075b565b6040516101f291906144f8565b60405180910390f35b34801561020757600080fd5b50610222600480360381019061021d919061453f565b6107a4565b005b34801561023057600080fd5b5061024b600480360381019061024691906144b2565b610c83565b60405161025891906144f8565b60405180910390f35b34801561026d57600080fd5b50610288600480360381019061028391906145a4565b610ccc565b005b34801561029657600080fd5b506102b160048036038101906102ac9190614622565b6116c8565b005b3480156102bf57600080fd5b506102da60048036038101906102d59190614662565b611b28565b6040516102e791906146b1565b60405180910390f35b3480156102fc57600080fd5b50610305611b57565b60405161031291906146db565b60405180910390f35b34801561032757600080fd5b50610330611b7d565b60405161033d91906144f8565b60405180910390f35b34801561035257600080fd5b5061036d6004803603810190610368919061453f565b611b83565b60405161037e959493929190614786565b60405180910390f35b34801561039357600080fd5b506103ae60048036038101906103a991906144b2565b611c88565b6040516103bb91906146b1565b60405180910390f35b3480156103d057600080fd5b506103eb60048036038101906103e69190614915565b611cc7565b005b3480156103f957600080fd5b50610414600480360381019061040f919061453f565b6120e5565b604051610429999897969594939291906149f7565b60405180910390f35b34801561043e57600080fd5b50610447612235565b60405161045491906144f8565b60405180910390f35b34801561046957600080fd5b50610484600480360381019061047f91906144b2565b61223b565b60405161049191906144f8565b60405180910390f35b3480156104a657600080fd5b506104c160048036038101906104bc919061453f565b612253565b6040516104ce91906144f8565b60405180910390f35b6104f160048036038101906104ec9190614c34565b61226b565b005b3480156104ff57600080fd5b5061050861275a565b60405161051591906146db565b60405180910390f35b34801561052a57600080fd5b50610533612780565b60405161054091906146db565b60405180910390f35b34801561055557600080fd5b50610570600480360381019061056b919061453f565b6127a8565b005b34801561057e57600080fd5b5061059960048036038101906105949190614cef565b612d1b565b005b3480156105a757600080fd5b506105c260048036038101906105bd9190614cef565b6135f9565b6040516105cf9190614de7565b60405180910390f35b3480156105e457600080fd5b506105ff60048036038101906105fa919061453f565b6137bf565b60405161060c91906144f8565b60405180910390f35b34801561062157600080fd5b5061063c6004803603810190610637919061453f565b6137d7565b6040516106499190614e09565b60405180910390f35b34801561065e57600080fd5b506106796004803603810190610674919061453f565b613877565b604051610686919061504b565b60405180910390f35b34801561069b57600080fd5b506106b660048036038101906106b19190614cef565b613c26565b6040516106c391906146db565b60405180910390f35b3480156106d857600080fd5b506106f360048036038101906106ee919061453f565b613c74565b005b34801561070157600080fd5b5061071c6004803603810190610717919061506d565b614000565b005b34801561072a57600080fd5b50610745600480360381019061074091906144b2565b6140e3565b60405161075291906144f8565b60405180910390f35b6000600760008373ffffffffffffffffffffffffffffffffffffffff1673ffffffffffffffffffffffffffffffffffffffff168152602001908152602001600020549050919050565b806004600082815260200190815260200160002060050160019054906101000a900460ff16610808576040517f08c379a00000000000000000000000000000000000000000000000000000000081526004016107ff906150f9565b60405180910390fd5b6004600082815260200190815260200160002060010160009054906101000a900473ffffffffffffffffffffffffffffffffffffffff1673ffffffffffffffffffffffffffffffffffffffff1661085d6140fb565b73ffffffffffffffffffffffffffffffffffffffff16146108b3576040517f08c379a00000000000000000000000000000000000000000000000000000000081526004016108aa9061518b565b60405180910390fd5b6108bb614170565b6000600460008481526020019081526020016000209050600060058111156108e6576108e5614980565b5b8160050160009054906101000a900460ff16600581111561090a57610909614980565b5b148061094b57506001600581111561092557610924614980565b5b8160050160009054906101000a900460ff16600581111561094957610948614980565b5b145b61098a576040517f08c379a00000000000000000000000000000000000000000000000000000000081526004016109819061521d565b60405180910390fd5b600080600581111561099f5761099e614980565b5b8260050160009054906101000a900460ff1660058111156109c3576109c2614980565b5b036109d45781600301549050610a64565b60005b8260060180549050811015610a62578260060181815481106109fc576109fb61523d565b5b906000526020600020906003020160020160009054906101000a900460ff16610a5557826006018181548110610a3557610a3461523d565b5b90600052602060002090600302016001015482610a52919061529b565b91505b80806001019150506109d7565b505b60048260050160006101000a81548160ff02191690836005811115610a8c57610a8b614980565b5b02179055506000811115610c3d57600073ffffffffffffffffffffffffffffffffffffffff168260080160009054906101000a900473ffffffffffffffffffffffffffffffffffffffff1673ffffffffffffffffffffffffffffffffffffffff1603610bc85760008260010160009054906101000a900473ffffffffffffffffffffffffffffffffffffffff1673ffffffffffffffffffffffffffffffffffffffff1682604051610b3c90615300565b60006040518083038185875af1925050503d8060008114610b79576040519150601f19603f3d011682016040523d82523d6000602084013e610b7e565b606091505b5050905080610bc2576040517f08c379a0000000000000000000000000000000000000000000000000000000008152600401610bb990615387565b60405180910390fd5b50610c3c565b610c3b8260010160009054906101000a900473ffffffffffffffffffffffffffffffffffffffff16828460080160009054906101000a900473ffffffffffffffffffffffffffffffffffffffff1673ffffffffffffffffffffffffffffffffffffffff166141b69092919063ffffffff16565b5b5b837f2e9dbb4e416a4ea638263858ffb46f4287b68d4fddace1377ddf5e9efb64b54b82604051610c6d91906144f8565b60405180910390a25050610c7f614235565b5050565b6000600660008373ffffffffffffffffffffffffffffffffffffffff1673ffffffffffffffffffffffffffffffffffffffff168152602001908152602001600020549050919050565b600160009054906101000a900473ffffffffffffffffffffffffffffffffffffffff1673ffffffffffffffffffffffffffffffffffffffff16610d0d6140fb565b73ffffffffffffffffffffffffffffffffffffffff1614610d63576040517f08c379a0000000000000000000000000000000000000000000000000000000008152600401610d5a90615419565b60405180910390fd5b8160026004600083815260200190815260200160002060050160019054906101000a900460ff16610dc9576040517f08c379a0000000000000000000000000000000000000000000000000000000008152600401610dc0906150f9565b60405180910390fd5b806005811115610ddc57610ddb614980565b5b6004600084815260200190815260200160002060050160009054906101000a900460ff166005811115610e1257610e11614980565b5b14610e52576040517f08c379a0000000000000000000000000000000000000000000000000000000008152600401610e49906154ab565b60405180910390fd5b610e5a614170565b600060046000868152602001908152602001600020905060006003600087815260200190815260200160002090508060020160009054906101000a900460ff168015610eb557508060020160019054906101000a900460ff16155b610ef4576040517f08c379a0000000000000000000000000000000000000000000000000000000008152600401610eeb90615517565b60405180910390fd5b6000805b8360060180549050811015610fc357836006018181548110610f1d57610f1c61523d565b5b906000526020600020906003020160020160009054906101000a900460ff16610fb657836006018181548110610f5657610f5561523d565b5b90600052602060002090600302016001015482610f73919061529b565b91506001846006018281548110610f8d57610f8c61523d565b5b906000526020600020906003020160020160006101000a81548160ff0219169083151502179055505b8080600101915050610ef8565b5060018260020160016101000a81548160ff021916908315150217905550858260020160026101000a81548160ff0219169083151502179055508515611357576000600c6000898152602001908152602001600020549050600042905080600d60008b8152602001908152602001600020819055508460020160009054906101000a900473ffffffffffffffffffffffffffffffffffffffff1673ffffffffffffffffffffffffffffffffffffffff16897f43665d08f32af3556ecdcec0e26671fc253ba64b93c43eb2cc1cdb9b0a1e4dab848486866110a39190615537565b6040516110b29392919061556b565b60405180910390a360038560050160006101000a81548160ff021916908360058111156110e2576110e1614980565b5b02179055508460060180549050856007018190555060008560020160009054906101000a900473ffffffffffffffffffffffffffffffffffffffff169050600660008273ffffffffffffffffffffffffffffffffffffffff1673ffffffffffffffffffffffffffffffffffffffff1681526020019081526020016000206000815480929190611170906155a2565b919050555083600760008373ffffffffffffffffffffffffffffffffffffffff1673ffffffffffffffffffffffffffffffffffffffff16815260200190815260200160002060008282546111c4919061529b565b925050819055508073ffffffffffffffffffffffffffffffffffffffff167f37f167154aced6254056a546c0ac25475a4a2efbb93890657dde7ced2513fe61600660008473ffffffffffffffffffffffffffffffffffffffff1673ffffffffffffffffffffffffffffffffffffffff16815260200190815260200160002054600760008573ffffffffffffffffffffffffffffffffffffffff1673ffffffffffffffffffffffffffffffffffffffff168152602001908152602001600020546040516112919291906155ea565b60405180910390a2600073ffffffffffffffffffffffffffffffffffffffff16600860009054906101000a900473ffffffffffffffffffffffffffffffffffffffff1673ffffffffffffffffffffffffffffffffffffffff16141580156112fa57506000600954115b1561134f5761134e81600954600860009054906101000a900473ffffffffffffffffffffffffffffffffffffffff1673ffffffffffffffffffffffffffffffffffffffff166141b69092919063ffffffff16565b5b50505061145f565b60048360050160006101000a81548160ff0219169083600581111561137f5761137e614980565b5b0217905550600073ffffffffffffffffffffffffffffffffffffffff16600860009054906101000a900473ffffffffffffffffffffffffffffffffffffffff1673ffffffffffffffffffffffffffffffffffffffff16141580156113e557506000600954115b1561145e5761145d8360010160009054906101000a900473ffffffffffffffffffffffffffffffffffffffff16600954600860009054906101000a900473ffffffffffffffffffffffffffffffffffffffff1673ffffffffffffffffffffffffffffffffffffffff166141b69092919063ffffffff16565b5b5b600081111561167d57600073ffffffffffffffffffffffffffffffffffffffff168360080160009054906101000a900473ffffffffffffffffffffffffffffffffffffffff1673ffffffffffffffffffffffffffffffffffffffff16036115cc576000866114f1578360010160009054906101000a900473ffffffffffffffffffffffffffffffffffffffff16611517565b8360020160009054906101000a900473ffffffffffffffffffffffffffffffffffffffff165b905060008173ffffffffffffffffffffffffffffffffffffffff168360405161153f90615300565b60006040518083038185875af1925050503d806000811461157c576040519150601f19603f3d011682016040523d82523d6000602084013e611581565b606091505b50509050806115c5576040517f08c379a00000000000000000000000000000000000000000000000000000000081526004016115bc90615685565b60405180910390fd5b505061167c565b60008360080160009054906101000a900473ffffffffffffffffffffffffffffffffffffffff169050600087611626578460010160009054906101000a900473ffffffffffffffffffffffffffffffffffffffff1661164c565b8460020160009054906101000a900473ffffffffffffffffffffffffffffffffffffffff165b905061167981848473ffffffffffffffffffffffffffffffffffffffff166141b69092919063ffffffff16565b50505b5b867f5add0b1fc2a3dfd95be33d1d5feb6709087e50213b7a73c3c3b2c387001221e787836040516116af9291906156a5565b60405180910390a25050506116c2614235565b50505050565b816004600082815260200190815260200160002060050160019054906101000a900460ff1661172c576040517f08c379a0000000000000000000000000000000000000000000000000000000008152600401611723906150f9565b60405180910390fd5b6004600082815260200190815260200160002060010160009054906101000a900473ffffffffffffffffffffffffffffffffffffffff1673ffffffffffffffffffffffffffffffffffffffff166117816140fb565b73ffffffffffffffffffffffffffffffffffffffff16146117d7576040517f08c379a00000000000000000000000000000000000000000000000000000000081526004016117ce9061518b565b60405180910390fd5b8260006004600083815260200190815260200160002060050160019054906101000a900460ff1661183d576040517f08c379a0000000000000000000000000000000000000000000000000000000008152600401611834906150f9565b60405180910390fd5b8060058111156118505761184f614980565b5b6004600084815260200190815260200160002060050160009054906101000a900460ff16600581111561188657611885614980565b5b146118c6576040517f08c379a00000000000000000000000000000000000000000000000000000000081526004016118bd906154ab565b60405180910390fd5b6118ce614170565b600073ffffffffffffffffffffffffffffffffffffffff168473ffffffffffffffffffffffffffffffffffffffff160361193d576040517f08c379a000000000000000000000000000000000000000000000000000000000815260040161193490615740565b60405180910390fd5b600a600086815260200190815260200160002060008573ffffffffffffffffffffffffffffffffffffffff1673ffffffffffffffffffffffffffffffffffffffff16815260200190815260200160002060009054906101000a900460ff166119da576040517f08c379a00000000000000000000000000000000000000000000000000000000081526004016119d1906157d2565b60405180910390fd5b836004600087815260200190815260200160002060020160006101000a81548173ffffffffffffffffffffffffffffffffffffffff021916908373ffffffffffffffffffffffffffffffffffffffff16021790555060016004600087815260200190815260200160002060050160006101000a81548160ff02191690836005811115611a6957611a68614980565b5b021790555042600c6000878152602001908152602001600020819055508373ffffffffffffffffffffffffffffffffffffffff16857fa7661d7b71508ed844493fb44d8189d5e683fb7efe63147d59db997a1165115542604051611acd91906144f8565b60405180910390a38373ffffffffffffffffffffffffffffffffffffffff16857f038b6dd13ab376cd96a6924f79dde494c7fbb5ea9f8c950b668d934645995cfd60405160405180910390a3611b21614235565b5050505050565b600a6020528160005260406000206020528060005260406000206000915091509054906101000a900460ff1681565b600860009054906101000a900473ffffffffffffffffffffffffffffffffffffffff1681565b60055481565b60036020528060005260406000206000915090508060000160009054906101000a900473ffffffffffffffffffffffffffffffffffffffff1690806001018054611bcc90615821565b80601f0160208091040260200160405190810160405280929190818152602001828054611bf890615821565b8015611c455780601f10611c1a57610100808354040283529160200191611c45565b820191906000526020600020905b815481529060010190602001808311611c2857829003601f168201915b5050505050908060020160009054906101000a900460ff16908060020160019054906101000a900460ff16908060020160029054906101000a900460ff16905085565b6000611c92612780565b73ffffffffffffffffffffffffffffffffffffffff168273ffffffffffffffffffffffffffffffffffffffff16149050919050565b8160016004600083815260200190815260200160002060050160019054906101000a900460ff16611d2d576040517f08c379a0000000000000000000000000000000000000000000000000000000008152600401611d24906150f9565b60405180910390fd5b806005811115611d4057611d3f614980565b5b6004600084815260200190815260200160002060050160009054906101000a900460ff166005811115611d7657611d75614980565b5b14611db6576040517f08c379a0000000000000000000000000000000000000000000000000000000008152600401611dad906154ab565b60405180910390fd5b611dbe614170565b60006004600086815260200190815260200160002090508060010160009054906101000a900473ffffffffffffffffffffffffffffffffffffffff1673ffffffffffffffffffffffffffffffffffffffff16611e186140fb565b73ffffffffffffffffffffffffffffffffffffffff161480611e9057508060020160009054906101000a900473ffffffffffffffffffffffffffffffffffffffff1673ffffffffffffffffffffffffffffffffffffffff16611e786140fb565b73ffffffffffffffffffffffffffffffffffffffff16145b611ecf576040517f08c379a0000000000000000000000000000000000000000000000000000000008152600401611ec6906158c4565b60405180910390fd5b6003600086815260200190815260200160002060020160009054906101000a900460ff1615611f33576040517f08c379a0000000000000000000000000000000000000000000000000000000008152600401611f2a90615956565b60405180910390fd5b6040518060a00160405280611f466140fb565b73ffffffffffffffffffffffffffffffffffffffff168152602001858152602001600115158152602001600015158152602001600015158152506003600087815260200190815260200160002060008201518160000160006101000a81548173ffffffffffffffffffffffffffffffffffffffff021916908373ffffffffffffffffffffffffffffffffffffffff1602179055506020820151816001019081611fef9190615b22565b5060408201518160020160006101000a81548160ff02191690831515021790555060608201518160020160016101000a81548160ff02191690831515021790555060808201518160020160026101000a81548160ff02191690831515021790555090505060028160050160006101000a81548160ff0219169083600581111561207b5761207a614980565b5b02179055506120886140fb565b73ffffffffffffffffffffffffffffffffffffffff16857f1b84372106d77c6daea0dda35bbc0229d10a83f58ec899092884925193682341866040516120ce9190614e09565b60405180910390a3506120df614235565b50505050565b60046020528060005260406000206000915090508060000154908060010160009054906101000a900473ffffffffffffffffffffffffffffffffffffffff16908060020160009054906101000a900473ffffffffffffffffffffffffffffffffffffffff169080600301549080600401805461216090615821565b80601f016020809104026020016040519081016040528092919081815260200182805461218c90615821565b80156121d95780601f106121ae576101008083540402835291602001916121d9565b820191906000526020600020905b8154815290600101906020018083116121bc57829003601f168201915b5050505050908060050160009054906101000a900460ff16908060050160019054906101000a900460ff16908060070154908060080160009054906101000a900473ffffffffffffffffffffffffffffffffffffffff16905089565b60095481565b60076020528060005260406000206000915090505481565b600d6020528060005260406000206000915090505481565b612273614170565b60008251116122b7576040517f08c379a00000000000000000000000000000000000000000000000000000000081526004016122ae90615c66565b60405180910390fd5b80518251146122fb576040517f08c379a00000000000000000000000000000000000000000000000000000000081526004016122f290615cf8565b60405180910390fd5b6000805b825181101561239a57600083828151811061231d5761231c61523d565b5b602002602001015111612365576040517f08c379a000000000000000000000000000000000000000000000000000000000815260040161235c90615d8a565b60405180910390fd5b8281815181106123785761237761523d565b5b60200260200101518261238b919061529b565b915080806001019150506122ff565b50600073ffffffffffffffffffffffffffffffffffffffff168573ffffffffffffffffffffffffffffffffffffffff160361241657803414612411576040517f08c379a000000000000000000000000000000000000000000000000000000000815260040161240890615e1c565b60405180910390fd5b61248e565b60003414612459576040517f08c379a000000000000000000000000000000000000000000000000000000000815260040161245090615eae565b60405180910390fd5b61248d6124646140fb565b30838873ffffffffffffffffffffffffffffffffffffffff1661423f909392919063ffffffff16565b5b600060055490506000600460008381526020019081526020016000209050868160080160006101000a81548173ffffffffffffffffffffffffffffffffffffffff021916908373ffffffffffffffffffffffffffffffffffffffff1602179055508181600001819055506125006140fb565b8160010160006101000a81548173ffffffffffffffffffffffffffffffffffffffff021916908373ffffffffffffffffffffffffffffffffffffffff16021790555060008160020160006101000a81548173ffffffffffffffffffffffffffffffffffffffff021916908373ffffffffffffffffffffffffffffffffffffffff160217905550828160030181905550858160040190816125a09190615b22565b5060008160050160006101000a81548160ff021916908360058111156125c9576125c8614980565b5b021790555060018160050160016101000a81548160ff0219169083151502179055506000816007018190555060005b85518110156126cf578160060160405180606001604052808884815181106126235761262261523d565b5b602002602001015181526020018784815181106126435761264261523d565b5b6020026020010151815260200160001515815250908060018154018082558091505060019003906000526020600020906003020160009091909190915060008201518160000190816126959190615b22565b506020820151816001015560408201518160020160006101000a81548160ff021916908315150217905550505080806001019150506125f8565b50600560008154809291906126e3906155a2565b91905055506126f06140fb565b73ffffffffffffffffffffffffffffffffffffffff16827fc9ecb6d1608d9b3507bb9d9c5dd51390c001bede92796fb8dd62dc7b624f19358589856006018054905060405161274193929190615ece565b60405180910390a3505050612754614235565b50505050565b600160009054906101000a900473ffffffffffffffffffffffffffffffffffffffff1681565b60007f0000000000000000000000000000000000000000000000000000000000000000905090565b806004600082815260200190815260200160002060050160019054906101000a900460ff1661280c576040517f08c379a0000000000000000000000000000000000000000000000000000000008152600401612803906150f9565b60405180910390fd5b600073ffffffffffffffffffffffffffffffffffffffff166004600083815260200190815260200160002060020160009054906101000a900473ffffffffffffffffffffffffffffffffffffffff1673ffffffffffffffffffffffffffffffffffffffff16036128b1576040517f08c379a00000000000000000000000000000000000000000000000000000000081526004016128a890615f7e565b60405180910390fd5b6004600082815260200190815260200160002060020160009054906101000a900473ffffffffffffffffffffffffffffffffffffffff1673ffffffffffffffffffffffffffffffffffffffff166129066140fb565b73ffffffffffffffffffffffffffffffffffffffff161461295c576040517f08c379a000000000000000000000000000000000000000000000000000000000815260040161295390616010565b60405180910390fd5b8160016004600083815260200190815260200160002060050160019054906101000a900460ff166129c2576040517f08c379a00000000000000000000000000000000000000000000000000000000081526004016129b9906150f9565b60405180910390fd5b8060058111156129d5576129d4614980565b5b6004600084815260200190815260200160002060050160009054906101000a900460ff166005811115612a0b57612a0a614980565b5b14612a4b576040517f08c379a0000000000000000000000000000000000000000000000000000000008152600401612a42906154ab565b60405180910390fd5b612a53614170565b60006004600086815260200190815260200160002090506000805b8260060180549050811015612af957826006018181548110612a9357612a9261523d565b5b906000526020600020906003020160020160009054906101000a900460ff16612aec57826006018181548110612acc57612acb61523d565b5b90600052602060002090600302016001015482612ae9919061529b565b91505b8080600101915050612a6e565b5060058260050160006101000a81548160ff02191690836005811115612b2257612b21614980565b5b02179055506000811115612cd357600073ffffffffffffffffffffffffffffffffffffffff168260080160009054906101000a900473ffffffffffffffffffffffffffffffffffffffff1673ffffffffffffffffffffffffffffffffffffffff1603612c5e5760008260010160009054906101000a900473ffffffffffffffffffffffffffffffffffffffff1673ffffffffffffffffffffffffffffffffffffffff1682604051612bd290615300565b60006040518083038185875af1925050503d8060008114612c0f576040519150601f19603f3d011682016040523d82523d6000602084013e612c14565b606091505b5050905080612c58576040517f08c379a0000000000000000000000000000000000000000000000000000000008152600401612c4f90615387565b60405180910390fd5b50612cd2565b612cd18260010160009054906101000a900473ffffffffffffffffffffffffffffffffffffffff16828460080160009054906101000a900473ffffffffffffffffffffffffffffffffffffffff1673ffffffffffffffffffffffffffffffffffffffff166141b69092919063ffffffff16565b5b5b857f1505dc0fd718dce43c94982367ffd6d61bfa742ca6d109fadfe523c80f74f75a82604051612d0391906144f8565b60405180910390a25050612d15614235565b50505050565b816004600082815260200190815260200160002060050160019054906101000a900460ff16612d7f576040517f08c379a0000000000000000000000000000000000000000000000000000000008152600401612d76906150f9565b60405180910390fd5b6004600082815260200190815260200160002060010160009054906101000a900473ffffffffffffffffffffffffffffffffffffffff1673ffffffffffffffffffffffffffffffffffffffff16612dd46140fb565b73ffffffffffffffffffffffffffffffffffffffff1614612e2a576040517f08c379a0000000000000000000000000000000000000000000000000000000008152600401612e219061518b565b60405180910390fd5b8260016004600083815260200190815260200160002060050160019054906101000a900460ff16612e90576040517f08c379a0000000000000000000000000000000000000000000000000000000008152600401612e87906150f9565b60405180910390fd5b806005811115612ea357612ea2614980565b5b6004600084815260200190815260200160002060050160009054906101000a900460ff166005811115612ed957612ed8614980565b5b14612f19576040517f08c379a0000000000000000000000000000000000000000000000000000000008152600401612f10906154ab565b60405180910390fd5b612f21614170565b600060046000878152602001908152602001600020905080600601805490508510612f81576040517f08c379a0000000000000000000000000000000000000000000000000000000008152600401612f78906160a2565b60405180910390fd5b806006018581548110612f9757612f9661523d565b5b906000526020600020906003020160020160009054906101000a900460ff1615612ff6576040517f08c379a0000000000000000000000000000000000000000000000000000000008152600401612fed90616134565b60405180910390fd5b600081600601868154811061300e5761300d61523d565b5b9060005260206000209060030201600101549050600182600601878154811061303a5761303961523d565b5b906000526020600020906003020160020160006101000a81548160ff021916908315150217905550816007016000815480929190613077906155a2565b919050555081600601805490508260070154036133d2576000600c6000898152602001908152602001600020549050600042905080600d60008b8152602001908152602001600020819055508360020160009054906101000a900473ffffffffffffffffffffffffffffffffffffffff1673ffffffffffffffffffffffffffffffffffffffff16897f43665d08f32af3556ecdcec0e26671fc253ba64b93c43eb2cc1cdb9b0a1e4dab8484868661312e9190615537565b60405161313d9392919061556b565b60405180910390a360038460050160006101000a81548160ff0219169083600581111561316d5761316c614980565b5b021790555060008460020160009054906101000a900473ffffffffffffffffffffffffffffffffffffffff169050600660008273ffffffffffffffffffffffffffffffffffffffff1673ffffffffffffffffffffffffffffffffffffffff16815260200190815260200160002060008154809291906131eb906155a2565b91905055508460030154600760008373ffffffffffffffffffffffffffffffffffffffff1673ffffffffffffffffffffffffffffffffffffffff1681526020019081526020016000206000828254613243919061529b565b925050819055508073ffffffffffffffffffffffffffffffffffffffff167f37f167154aced6254056a546c0ac25475a4a2efbb93890657dde7ced2513fe61600660008473ffffffffffffffffffffffffffffffffffffffff1673ffffffffffffffffffffffffffffffffffffffff16815260200190815260200160002054600760008573ffffffffffffffffffffffffffffffffffffffff1673ffffffffffffffffffffffffffffffffffffffff168152602001908152602001600020546040516133109291906155ea565b60405180910390a2600073ffffffffffffffffffffffffffffffffffffffff16600860009054906101000a900473ffffffffffffffffffffffffffffffffffffffff1673ffffffffffffffffffffffffffffffffffffffff161415801561337957506000600954115b156133ce576133cd81600954600860009054906101000a900473ffffffffffffffffffffffffffffffffffffffff1673ffffffffffffffffffffffffffffffffffffffff166141b69092919063ffffffff16565b5b5050505b600073ffffffffffffffffffffffffffffffffffffffff168260080160009054906101000a900473ffffffffffffffffffffffffffffffffffffffff1673ffffffffffffffffffffffffffffffffffffffff16036135005760008260020160009054906101000a900473ffffffffffffffffffffffffffffffffffffffff1673ffffffffffffffffffffffffffffffffffffffff168260405161347490615300565b60006040518083038185875af1925050503d80600081146134b1576040519150601f19603f3d011682016040523d82523d6000602084013e6134b6565b606091505b50509050806134fa576040517f08c379a00000000000000000000000000000000000000000000000000000000081526004016134f1906161c6565b60405180910390fd5b50613574565b6135738260020160009054906101000a900473ffffffffffffffffffffffffffffffffffffffff16828460080160009054906101000a900473ffffffffffffffffffffffffffffffffffffffff1673ffffffffffffffffffffffffffffffffffffffff166141b69092919063ffffffff16565b5b8160020160009054906101000a900473ffffffffffffffffffffffffffffffffffffffff1673ffffffffffffffffffffffffffffffffffffffff1686887f4ca7615a45ed3d595a035f53d17e532a7e108ae0da41df95b87a7a13178a5723846040516135e091906144f8565b60405180910390a450506135f2614235565b5050505050565b613601614374565b6004600084815260200190815260200160002060050160019054906101000a900460ff16613664576040517f08c379a000000000000000000000000000000000000000000000000000000000815260040161365b906150f9565b60405180910390fd5b600460008481526020019081526020016000206006018054905082106136bf576040517f08c379a00000000000000000000000000000000000000000000000000000000081526004016136b6906160a2565b60405180910390fd5b6004600084815260200190815260200160002060060182815481106136e7576136e661523d565b5b906000526020600020906003020160405180606001604052908160008201805461371090615821565b80601f016020809104026020016040519081016040528092919081815260200182805461373c90615821565b80156137895780601f1061375e57610100808354040283529160200191613789565b820191906000526020600020905b81548152906001019060200180831161376c57829003601f168201915b50505050508152602001600182015481526020016002820160009054906101000a900460ff161515151581525050905092915050565b600c6020528060005260406000206000915090505481565b600260205280600052604060002060009150905080546137f690615821565b80601f016020809104026020016040519081016040528092919081815260200182805461382290615821565b801561386f5780601f106138445761010080835404028352916020019161386f565b820191906000526020600020905b81548152906001019060200180831161385257829003601f168201915b505050505081565b61387f614397565b6004600083815260200190815260200160002060050160019054906101000a900460ff166138e2576040517f08c379a00000000000000000000000000000000000000000000000000000000081526004016138d9906150f9565b60405180910390fd5b6004600083815260200190815260200160002060405180610140016040529081600082015481526020016001820160009054906101000a900473ffffffffffffffffffffffffffffffffffffffff1673ffffffffffffffffffffffffffffffffffffffff1673ffffffffffffffffffffffffffffffffffffffff1681526020016002820160009054906101000a900473ffffffffffffffffffffffffffffffffffffffff1673ffffffffffffffffffffffffffffffffffffffff1673ffffffffffffffffffffffffffffffffffffffff168152602001600382015481526020016004820180546139d190615821565b80601f01602080910402602001604051908101604052809291908181526020018280546139fd90615821565b8015613a4a5780601f10613a1f57610100808354040283529160200191613a4a565b820191906000526020600020905b815481529060010190602001808311613a2d57829003601f168201915b505050505081526020016005820160009054906101000a900460ff166005811115613a7857613a77614980565b5b6005811115613a8a57613a89614980565b5b81526020016005820160019054906101000a900460ff1615151515815260200160068201805480602002602001604051908101604052809291908181526020016000905b82821015613bb75783829060005260206000209060030201604051806060016040529081600082018054613b0190615821565b80601f0160208091040260200160405190810160405280929190818152602001828054613b2d90615821565b8015613b7a5780601f10613b4f57610100808354040283529160200191613b7a565b820191906000526020600020905b815481529060010190602001808311613b5d57829003601f168201915b50505050508152602001600182015481526020016002820160009054906101000a900460ff16151515158152505081526020019060010190613ace565b505050508152602001600782015481526020016008820160009054906101000a900473ffffffffffffffffffffffffffffffffffffffff1673ffffffffffffffffffffffffffffffffffffffff1673ffffffffffffffffffffffffffffffffffffffff16815250509050919050565b600b6020528160005260406000208181548110613c4257600080fd5b906000526020600020016000915091509054906101000a900473ffffffffffffffffffffffffffffffffffffffff1681565b8060006004600083815260200190815260200160002060050160019054906101000a900460ff16613cda576040517f08c379a0000000000000000000000000000000000000000000000000000000008152600401613cd1906150f9565b60405180910390fd5b806005811115613ced57613cec614980565b5b6004600084815260200190815260200160002060050160009054906101000a900460ff166005811115613d2357613d22614980565b5b14613d63576040517f08c379a0000000000000000000000000000000000000000000000000000000008152600401613d5a906154ab565b60405180910390fd5b613d6b614170565b600073ffffffffffffffffffffffffffffffffffffffff16600860009054906101000a900473ffffffffffffffffffffffffffffffffffffffff1673ffffffffffffffffffffffffffffffffffffffff1614158015613dcc57506000600954115b613e0b576040517f08c379a0000000000000000000000000000000000000000000000000000000008152600401613e0290616258565b60405180910390fd5b600a60008481526020019081526020016000206000613e286140fb565b73ffffffffffffffffffffffffffffffffffffffff1673ffffffffffffffffffffffffffffffffffffffff16815260200190815260200160002060009054906101000a900460ff1615613eb0576040517f08c379a0000000000000000000000000000000000000000000000000000000008152600401613ea7906162c4565b60405180910390fd5b613f08613ebb6140fb565b30600954600860009054906101000a900473ffffffffffffffffffffffffffffffffffffffff1673ffffffffffffffffffffffffffffffffffffffff1661423f909392919063ffffffff16565b6001600a60008581526020019081526020016000206000613f276140fb565b73ffffffffffffffffffffffffffffffffffffffff1673ffffffffffffffffffffffffffffffffffffffff16815260200190815260200160002060006101000a81548160ff021916908315150217905550600b6000848152602001908152602001600020613f936140fb565b9080600181540180825580915050600190039060005260206000200160009091909190916101000a81548173ffffffffffffffffffffffffffffffffffffffff021916908373ffffffffffffffffffffffffffffffffffffffff160217905550613ffb614235565b505050565b600160009054906101000a900473ffffffffffffffffffffffffffffffffffffffff1673ffffffffffffffffffffffffffffffffffffffff166140416140fb565b73ffffffffffffffffffffffffffffffffffffffff1614614097576040517f08c379a000000000000000000000000000000000000000000000000000000000815260040161408e90615419565b60405180910390fd5b81600860006101000a81548173ffffffffffffffffffffffffffffffffffffffff021916908373ffffffffffffffffffffffffffffffffffffffff160217905550806009819055505050565b60066020528060005260406000206000915090505481565b60008060003690509050600061410f6142c1565b905061411a33611c88565b80156141265750808210155b1561416057600036828461413a9190615537565b908092614149939291906162ee565b906141549190616360565b60601c9250505061416d565b6141686142ca565b925050505b90565b6002600054036141ac576040517f3ee5aeb500000000000000000000000000000000000000000000000000000000815260040160405180910390fd5b6002600081905550565b614230838473ffffffffffffffffffffffffffffffffffffffff1663a9059cbb85856040516024016141e99291906163bf565b604051602081830303815290604052915060e01b6020820180517bffffffffffffffffffffffffffffffffffffffffffffffffffffffff83818316178352505050506142d2565b505050565b6001600081905550565b6142bb848573ffffffffffffffffffffffffffffffffffffffff166323b872dd868686604051602401614274939291906163e8565b604051602081830303815290604052915060e01b6020820180517bffffffffffffffffffffffffffffffffffffffffffffffffffffffff83818316178352505050506142d2565b50505050565b60006014905090565b600033905090565b600080602060008451602086016000885af1806142f5576040513d6000823e3d81fd5b3d92506000519150506000821461431057600181141561432c565b60008473ffffffffffffffffffffffffffffffffffffffff163b145b1561436e57836040517f5274afe700000000000000000000000000000000000000000000000000000000815260040161436591906146db565b60405180910390fd5b50505050565b604051806060016040528060608152602001600081526020016000151581525090565b60405180610140016040528060008152602001600073ffffffffffffffffffffffffffffffffffffffff168152602001600073ffffffffffffffffffffffffffffffffffffffff16815260200160008152602001606081526020016000600581111561440657614405614980565b5b81526020016000151581526020016060815260200160008152602001600073ffffffffffffffffffffffffffffffffffffffff1681525090565b6000604051905090565b600080fd5b600080fd5b600073ffffffffffffffffffffffffffffffffffffffff82169050919050565b600061447f82614454565b9050919050565b61448f81614474565b811461449a57600080fd5b50565b6000813590506144ac81614486565b92915050565b6000602082840312156144c8576144c761444a565b5b60006144d68482850161449d565b91505092915050565b6000819050919050565b6144f2816144df565b82525050565b600060208201905061450d60008301846144e9565b92915050565b61451c816144df565b811461452757600080fd5b50565b60008135905061453981614513565b92915050565b6000602082840312156145555761455461444a565b5b60006145638482850161452a565b91505092915050565b60008115159050919050565b6145818161456c565b811461458c57600080fd5b50565b60008135905061459e81614578565b92915050565b600080604083850312156145bb576145ba61444a565b5b60006145c98582860161452a565b92505060206145da8582860161458f565b9150509250929050565b60006145ef82614454565b9050919050565b6145ff816145e4565b811461460a57600080fd5b50565b60008135905061461c816145f6565b92915050565b600080604083850312156146395761463861444a565b5b60006146478582860161452a565b92505060206146588582860161460d565b9150509250929050565b600080604083850312156146795761467861444a565b5b60006146878582860161452a565b92505060206146988582860161449d565b9150509250929050565b6146ab8161456c565b82525050565b60006020820190506146c660008301846146a2565b92915050565b6146d581614474565b82525050565b60006020820190506146f060008301846146cc565b92915050565b600081519050919050565b600082825260208201905092915050565b60005b83811015614730578082015181840152602081019050614715565b60008484015250505050565b6000601f19601f8301169050919050565b6000614758826146f6565b6147628185614701565b9350614772818560208601614712565b61477b8161473c565b840191505092915050565b600060a08201905061479b60008301886146cc565b81810360208301526147ad818761474d565b90506147bc60408301866146a2565b6147c960608301856146a2565b6147d660808301846146a2565b9695505050505050565b600080fd5b600080fd5b7f4e487b7100000000000000000000000000000000000000000000000000000000600052604160045260246000fd5b6148228261473c565b810181811067ffffffffffffffff82111715614841576148406147ea565b5b80604052505050565b6000614854614440565b90506148608282614819565b919050565b600067ffffffffffffffff8211156148805761487f6147ea565b5b6148898261473c565b9050602081019050919050565b82818337600083830152505050565b60006148b86148b384614865565b61484a565b9050828152602081018484840111156148d4576148d36147e5565b5b6148df848285614896565b509392505050565b600082601f8301126148fc576148fb6147e0565b5b813561490c8482602086016148a5565b91505092915050565b6000806040838503121561492c5761492b61444a565b5b600061493a8582860161452a565b925050602083013567ffffffffffffffff81111561495b5761495a61444f565b5b614967858286016148e7565b9150509250929050565b61497a816145e4565b82525050565b7f4e487b7100000000000000000000000000000000000000000000000000000000600052602160045260246000fd5b600681106149c0576149bf614980565b5b50565b60008190506149d1826149af565b919050565b60006149e1826149c3565b9050919050565b6149f1816149d6565b82525050565b600061012082019050614a0d600083018c6144e9565b614a1a602083018b614971565b614a27604083018a614971565b614a3460608301896144e9565b8181036080830152614a46818861474d565b9050614a5560a08301876149e8565b614a6260c08301866146a2565b614a6f60e08301856144e9565b614a7d6101008301846146cc565b9a9950505050505050505050565b600067ffffffffffffffff821115614aa657614aa56147ea565b5b602082029050602081019050919050565b600080fd5b6000614acf614aca84614a8b565b61484a565b90508083825260208201905060208402830185811115614af257614af1614ab7565b5b835b81811015614b3957803567ffffffffffffffff811115614b1757614b166147e0565b5b808601614b2489826148e7565b85526020850194505050602081019050614af4565b5050509392505050565b600082601f830112614b5857614b576147e0565b5b8135614b68848260208601614abc565b91505092915050565b600067ffffffffffffffff821115614b8c57614b8b6147ea565b5b602082029050602081019050919050565b6000614bb0614bab84614b71565b61484a565b90508083825260208201905060208402830185811115614bd357614bd2614ab7565b5b835b81811015614bfc5780614be8888261452a565b845260208401935050602081019050614bd5565b5050509392505050565b600082601f830112614c1b57614c1a6147e0565b5b8135614c2b848260208601614b9d565b91505092915050565b60008060008060808587031215614c4e57614c4d61444a565b5b6000614c5c8782880161449d565b945050602085013567ffffffffffffffff811115614c7d57614c7c61444f565b5b614c89878288016148e7565b935050604085013567ffffffffffffffff811115614caa57614ca961444f565b5b614cb687828801614b43565b925050606085013567ffffffffffffffff811115614cd757614cd661444f565b5b614ce387828801614c06565b91505092959194509250565b60008060408385031215614d0657614d0561444a565b5b6000614d148582860161452a565b9250506020614d258582860161452a565b9150509250929050565b600082825260208201905092915050565b6000614d4b826146f6565b614d558185614d2f565b9350614d65818560208601614712565b614d6e8161473c565b840191505092915050565b614d82816144df565b82525050565b614d918161456c565b82525050565b60006060830160008301518482036000860152614db48282614d40565b9150506020830151614dc96020860182614d79565b506040830151614ddc6040860182614d88565b508091505092915050565b60006020820190508181036000830152614e018184614d97565b905092915050565b60006020820190508181036000830152614e23818461474d565b905092915050565b614e34816145e4565b82525050565b614e43816149d6565b82525050565b600081519050919050565b600082825260208201905092915050565b6000819050602082019050919050565b60006060830160008301518482036000860152614e928282614d40565b9150506020830151614ea76020860182614d79565b506040830151614eba6040860182614d88565b508091505092915050565b6000614ed18383614e75565b905092915050565b6000602082019050919050565b6000614ef182614e49565b614efb8185614e54565b935083602082028501614f0d85614e65565b8060005b85811015614f495784840389528151614f2a8582614ec5565b9450614f3583614ed9565b925060208a01995050600181019050614f11565b50829750879550505050505092915050565b614f6481614474565b82525050565b600061014083016000830151614f836000860182614d79565b506020830151614f966020860182614e2b565b506040830151614fa96040860182614e2b565b506060830151614fbc6060860182614d79565b5060808301518482036080860152614fd48282614d40565b91505060a0830151614fe960a0860182614e3a565b5060c0830151614ffc60c0860182614d88565b5060e083015184820360e08601526150148282614ee6565b91505061010083015161502b610100860182614d79565b50610120830151615040610120860182614f5b565b508091505092915050565b600060208201905081810360008301526150658184614f6a565b905092915050565b600080604083850312156150845761508361444a565b5b60006150928582860161449d565b92505060206150a38582860161452a565b9150509250929050565b7f476967457363726f773a2047696720646f6573206e6f74206578697374000000600082015250565b60006150e3601d83614701565b91506150ee826150ad565b602082019050919050565b60006020820190508181036000830152615112816150d6565b9050919050565b7f476967457363726f773a204f6e6c792074686520636c69656e742063616e206360008201527f616c6c2074686973000000000000000000000000000000000000000000000000602082015250565b6000615175602883614701565b915061518082615119565b604082019050919050565b600060208201905081810360008301526151a481615168565b9050919050565b7f476967457363726f773a204769672063616e6e6f742062652063616e63656c6c60008201527f656420696e206974732063757272656e74207374617465000000000000000000602082015250565b6000615207603783614701565b9150615212826151ab565b604082019050919050565b60006020820190508181036000830152615236816151fa565b9050919050565b7f4e487b7100000000000000000000000000000000000000000000000000000000600052603260045260246000fd5b7f4e487b7100000000000000000000000000000000000000000000000000000000600052601160045260246000fd5b60006152a6826144df565b91506152b1836144df565b92508282019050808211156152c9576152c861526c565b5b92915050565b600081905092915050565b50565b60006152ea6000836152cf565b91506152f5826152da565b600082019050919050565b600061530b826152dd565b9150819050919050565b7f476967457363726f773a204661696c656420746f20726566756e64204554482060008201527f746f20636c69656e740000000000000000000000000000000000000000000000602082015250565b6000615371602983614701565b915061537c82615315565b604082019050919050565b600060208201905081810360008301526153a081615364565b9050919050565b7f476967457363726f773a204f6e6c792061726269747261746f722063616e206360008201527f616c6c0000000000000000000000000000000000000000000000000000000000602082015250565b6000615403602383614701565b915061540e826153a7565b604082019050919050565b60006020820190508181036000830152615432816153f6565b9050919050565b7f476967457363726f773a20476967206973206e6f7420696e207468652072657160008201527f7569726564207374617465000000000000000000000000000000000000000000602082015250565b6000615495602b83614701565b91506154a082615439565b604082019050919050565b600060208201905081810360008301526154c481615488565b9050919050565b7f476967457363726f773a204e6f20616374697665206469737075746500000000600082015250565b6000615501601c83614701565b915061550c826154cb565b602082019050919050565b60006020820190508181036000830152615530816154f4565b9050919050565b6000615542826144df565b915061554d836144df565b92508282039050818111156155655761556461526c565b5b92915050565b600060608201905061558060008301866144e9565b61558d60208301856144e9565b61559a60408301846144e9565b949350505050565b60006155ad826144df565b91507fffffffffffffffffffffffffffffffffffffffffffffffffffffffffffffffff82036155df576155de61526c565b5b600182019050919050565b60006040820190506155ff60008301856144e9565b61560c60208301846144e9565b9392505050565b7f476967457363726f773a2044697370757465207472616e73666572206661696c60008201527f6564000000000000000000000000000000000000000000000000000000000000602082015250565b600061566f602283614701565b915061567a82615613565b604082019050919050565b6000602082019050818103600083015261569e81615662565b9050919050565b60006040820190506156ba60008301856146a2565b6156c760208301846144e9565b9392505050565b7f476967457363726f773a20467265656c616e636572206164647265737320636160008201527f6e6e6f74206265207a65726f0000000000000000000000000000000000000000602082015250565b600061572a602c83614701565b9150615735826156ce565b604082019050919050565b600060208201905081810360008301526157598161571d565b9050919050565b7f476967457363726f773a20467265656c616e63657220646964206e6f7420626960008201527f6400000000000000000000000000000000000000000000000000000000000000602082015250565b60006157bc602183614701565b91506157c782615760565b604082019050919050565b600060208201905081810360008301526157eb816157af565b9050919050565b7f4e487b7100000000000000000000000000000000000000000000000000000000600052602260045260246000fd5b6000600282049050600182168061583957607f821691505b60208210810361584c5761584b6157f2565b5b50919050565b7f476967457363726f773a204f6e6c792067696720706172746965732063616e2060008201527f7261697365206469737075746500000000000000000000000000000000000000602082015250565b60006158ae602d83614701565b91506158b982615852565b604082019050919050565b600060208201905081810360008301526158dd816158a1565b9050919050565b7f476967457363726f773a204469737075746520616c726561647920726169736560008201527f6400000000000000000000000000000000000000000000000000000000000000602082015250565b6000615940602183614701565b915061594b826158e4565b604082019050919050565b6000602082019050818103600083015261596f81615933565b9050919050565b60008190508160005260206000209050919050565b60006020601f8301049050919050565b600082821b905092915050565b6000600883026159d87fffffffffffffffffffffffffffffffffffffffffffffffffffffffffffffffff8261599b565b6159e2868361599b565b95508019841693508086168417925050509392505050565b6000819050919050565b6000615a1f615a1a615a15846144df565b6159fa565b6144df565b9050919050565b6000819050919050565b615a3983615a04565b615a4d615a4582615a26565b8484546159a8565b825550505050565b600090565b615a62615a55565b615a6d818484615a30565b505050565b5b81811015615a9157615a86600082615a5a565b600181019050615a73565b5050565b601f821115615ad657615aa781615976565b615ab08461598b565b81016020851015615abf578190505b615ad3615acb8561598b565b830182615a72565b50505b505050565b600082821c905092915050565b6000615af960001984600802615adb565b1980831691505092915050565b6000615b128383615ae8565b9150826002028217905092915050565b615b2b826146f6565b67ffffffffffffffff811115615b4457615b436147ea565b5b615b4e8254615821565b615b59828285615a95565b600060209050601f831160018114615b8c5760008415615b7a578287015190505b615b848582615b06565b865550615bec565b601f198416615b9a86615976565b60005b82811015615bc257848901518255600182019150602085019450602081019050615b9d565b86831015615bdf5784890151615bdb601f891682615ae8565b8355505b6001600288020188555050505b505050505050565b7f476967457363726f773a204d7573742068617665206174206c65617374206f6e60008201527f65206d696c6573746f6e65000000000000000000000000000000000000000000602082015250565b6000615c50602b83614701565b9150615c5b82615bf4565b604082019050919050565b60006020820190508181036000830152615c7f81615c43565b9050919050565b7f476967457363726f773a204d696c6573746f6e65206465736372697074696f6e60008201527f7320616e642076616c75657320636f756e74206d69736d617463680000000000602082015250565b6000615ce2603b83614701565b9150615ced82615c86565b604082019050919050565b60006020820190508181036000830152615d1181615cd5565b9050919050565b7f476967457363726f773a204d696c6573746f6e652076616c7565206d7573742060008201527f626520706f736974697665000000000000000000000000000000000000000000602082015250565b6000615d74602b83614701565b9150615d7f82615d18565b604082019050919050565b60006020820190508181036000830152615da381615d67565b9050919050565b7f476967457363726f773a2053656e7420455448206d757374206d61746368207460008201527f6f74616c206d696c6573746f6e652076616c7565730000000000000000000000602082015250565b6000615e06603583614701565b9150615e1182615daa565b604082019050919050565b60006020820190508181036000830152615e3581615df9565b9050919050565b7f476967457363726f773a20446f206e6f742073656e642045544820666f72204560008201527f5243323020676967730000000000000000000000000000000000000000000000602082015250565b6000615e98602983614701565b9150615ea382615e3c565b604082019050919050565b60006020820190508181036000830152615ec781615e8b565b9050919050565b6000606082019050615ee360008301866144e9565b8181036020830152615ef5818561474d565b9050615f0460408301846144e9565b949350505050565b7f476967457363726f773a20467265656c616e636572206e6f742061737369676e60008201527f6564000000000000000000000000000000000000000000000000000000000000602082015250565b6000615f68602283614701565b9150615f7382615f0c565b604082019050919050565b60006020820190508181036000830152615f9781615f5b565b9050919050565b7f476967457363726f773a204f6e6c792074686520667265656c616e636572206360008201527f616e2063616c6c20746869730000000000000000000000000000000000000000602082015250565b6000615ffa602c83614701565b915061600582615f9e565b604082019050919050565b6000602082019050818103600083015261602981615fed565b9050919050565b7f476967457363726f773a20496e76616c6964206d696c6573746f6e6520696e6460008201527f6578000000000000000000000000000000000000000000000000000000000000602082015250565b600061608c602283614701565b915061609782616030565b604082019050919050565b600060208201905081810360008301526160bb8161607f565b9050919050565b7f476967457363726f773a204d696c6573746f6e6520616c726561647920636f6d60008201527f706c657465640000000000000000000000000000000000000000000000000000602082015250565b600061611e602683614701565b9150616129826160c2565b604082019050919050565b6000602082019050818103600083015261614d81616111565b9050919050565b7f476967457363726f773a204661696c656420746f2073656e642045544820746f60008201527f20667265656c616e636572000000000000000000000000000000000000000000602082015250565b60006161b0602b83614701565b91506161bb82616154565b604082019050919050565b600060208201905081810360008301526161df816161a3565b9050919050565b7f476967457363726f773a205374616b696e67206e6f7420636f6e66696775726560008201527f6400000000000000000000000000000000000000000000000000000000000000602082015250565b6000616242602183614701565b915061624d826161e6565b604082019050919050565b6000602082019050818103600083015261627181616235565b9050919050565b7f476967457363726f773a20416c72656164792062696400000000000000000000600082015250565b60006162ae601683614701565b91506162b982616278565b602082019050919050565b600060208201905081810360008301526162dd816162a1565b9050919050565b600080fd5b600080fd5b60008085851115616302576163016162e4565b5b83861115616313576163126162e9565b5b6001850283019150848603905094509492505050565b600082905092915050565b60007fffffffffffffffffffffffffffffffffffffffff00000000000000000000000082169050919050565b600061636c8383616329565b826163778135616334565b925060148210156163b7576163b27fffffffffffffffffffffffffffffffffffffffff0000000000000000000000008360140360080261599b565b831692505b505092915050565b60006040820190506163d460008301856146cc565b6163e160208301846144e9565b9392505050565b60006060820190506163fd60008301866146cc565b61640a60208301856146cc565b61641760408301846144e9565b94935050505056fea2646970667358221220dae71a813c97336727dc6b7fb5d385810da23f1110c69ec5dc3179bbd7d58dbf64736f6c634300081c0033",
  "linkReferences": {},
  "deployedLinkReferences": {}
}